{
  "address": "0x299285189203a8e8e37bad6F1A312953FEdd384d",
  "abi": [
    {
      "inputs": [],
      "stateMutability": "nonpayable",
      "type": "constructor"
    },
    {
      "anonymous": false,
      "inputs": [
        {
          "indexed": false,
          "internalType": "address",
          "name": "nftContractAddress",
          "type": "address"
        },
        {
          "indexed": false,
          "internalType": "uint256",
          "name": "tokenId",
          "type": "uint256"
        },
        {
          "indexed": false,
          "internalType": "uint64",
          "name": "auctionEndPeriod",
          "type": "uint64"
        }
      ],
      "name": "AuctionPeriodUpdated",
      "type": "event"
    },
    {
      "anonymous": false,
      "inputs": [
        {
          "indexed": false,
          "internalType": "address",
          "name": "nftContractAddress",
          "type": "address"
        },
        {
          "indexed": false,
          "internalType": "uint256",
          "name": "tokenId",
          "type": "uint256"
        },
        {
          "indexed": false,
          "internalType": "address",
          "name": "auctionSettler",
          "type": "address"
        }
      ],
      "name": "AuctionSettled",
      "type": "event"
    },
    {
      "anonymous": false,
      "inputs": [
        {
          "indexed": false,
          "internalType": "address",
          "name": "nftContractAddress",
          "type": "address"
        },
        {
          "indexed": false,
          "internalType": "uint256",
          "name": "tokenId",
          "type": "uint256"
        },
        {
          "indexed": false,
          "internalType": "address",
          "name": "nftOwner",
          "type": "address"
        }
      ],
      "name": "AuctionWithdrawn",
      "type": "event"
    },
    {
      "anonymous": false,
      "inputs": [
        {
          "indexed": false,
          "internalType": "address",
          "name": "nftContractAddress",
          "type": "address"
        },
        {
          "indexed": false,
          "internalType": "uint256",
          "name": "tokenId",
          "type": "uint256"
        },
        {
          "indexed": false,
          "internalType": "address",
          "name": "bidder",
          "type": "address"
        },
        {
          "indexed": false,
          "internalType": "uint256",
          "name": "ethAmount",
          "type": "uint256"
        },
        {
          "indexed": false,
          "internalType": "address",
          "name": "erc20Token",
          "type": "address"
        },
        {
          "indexed": false,
          "internalType": "uint256",
          "name": "tokenAmount",
          "type": "uint256"
        }
      ],
      "name": "BidMade",
      "type": "event"
    },
    {
      "anonymous": false,
      "inputs": [
        {
          "indexed": false,
          "internalType": "address",
          "name": "nftContractAddress",
          "type": "address"
        },
        {
          "indexed": false,
          "internalType": "uint256",
          "name": "tokenId",
          "type": "uint256"
        },
        {
          "indexed": false,
          "internalType": "address",
          "name": "highestBidder",
          "type": "address"
        }
      ],
      "name": "BidWithdrawn",
      "type": "event"
    },
    {
      "anonymous": false,
      "inputs": [
        {
          "indexed": false,
          "internalType": "address",
          "name": "nftContractAddress",
          "type": "address"
        },
        {
          "indexed": false,
          "internalType": "uint256",
          "name": "tokenId",
          "type": "uint256"
        },
        {
          "indexed": false,
          "internalType": "uint128",
          "name": "newBuyNowPrice",
          "type": "uint128"
        }
      ],
      "name": "BuyNowPriceUpdated",
      "type": "event"
    },
    {
      "anonymous": false,
      "inputs": [
        {
          "indexed": false,
          "internalType": "address",
          "name": "nftContractAddress",
          "type": "address"
        },
        {
          "indexed": false,
          "internalType": "uint256",
          "name": "tokenId",
          "type": "uint256"
        }
      ],
      "name": "HighestBidTaken",
      "type": "event"
    },
    {
      "anonymous": false,
      "inputs": [
        {
          "indexed": false,
          "internalType": "address",
          "name": "nftContractAddress",
          "type": "address"
        },
        {
          "indexed": false,
          "internalType": "uint256",
          "name": "tokenId",
          "type": "uint256"
        },
        {
          "indexed": false,
          "internalType": "uint256",
          "name": "newMinPrice",
          "type": "uint256"
        }
      ],
      "name": "MinimumPriceUpdated",
      "type": "event"
    },
    {
      "anonymous": false,
      "inputs": [
        {
          "indexed": false,
          "internalType": "address",
          "name": "nftContractAddress",
          "type": "address"
        },
        {
          "indexed": false,
          "internalType": "uint256",
          "name": "tokenId",
          "type": "uint256"
        },
        {
          "indexed": false,
          "internalType": "address",
          "name": "nftSeller",
          "type": "address"
        },
        {
          "indexed": false,
          "internalType": "uint128",
          "name": "nftHighestBid",
          "type": "uint128"
        },
        {
          "indexed": false,
          "internalType": "address",
          "name": "nftHighestBidder",
          "type": "address"
        },
        {
          "indexed": false,
          "internalType": "address",
          "name": "nftRecipient",
          "type": "address"
        }
      ],
      "name": "NFTTransferredAndSellerPaid",
      "type": "event"
    },
    {
      "anonymous": false,
      "inputs": [
        {
          "indexed": false,
          "internalType": "address",
          "name": "nftContractAddress",
          "type": "address"
        },
        {
          "indexed": false,
          "internalType": "uint256",
          "name": "tokenId",
          "type": "uint256"
        },
        {
          "indexed": false,
          "internalType": "address",
          "name": "nftSeller",
          "type": "address"
        },
        {
          "indexed": false,
          "internalType": "address",
          "name": "erc20Token",
          "type": "address"
        },
        {
          "indexed": false,
          "internalType": "uint128",
          "name": "minPrice",
          "type": "uint128"
        },
        {
          "indexed": false,
          "internalType": "uint128",
          "name": "buyNowPrice",
          "type": "uint128"
        },
        {
          "indexed": false,
          "internalType": "uint32",
          "name": "auctionBidPeriod",
          "type": "uint32"
        },
        {
          "indexed": false,
          "internalType": "uint32",
          "name": "bidIncreasePercentage",
          "type": "uint32"
        },
        {
          "indexed": false,
          "internalType": "address[]",
          "name": "feeRecipients",
          "type": "address[]"
        },
        {
          "indexed": false,
          "internalType": "uint32[]",
          "name": "feePercentages",
          "type": "uint32[]"
        }
      ],
      "name": "NftAuctionCreated",
      "type": "event"
    },
    {
      "anonymous": false,
      "inputs": [
        {
          "indexed": false,
          "internalType": "address",
          "name": "nftContractAddress",
          "type": "address"
        },
        {
          "indexed": false,
          "internalType": "uint256",
          "name": "tokenId",
          "type": "uint256"
        },
        {
          "indexed": false,
          "internalType": "address",
          "name": "nftSeller",
          "type": "address"
        },
        {
          "indexed": false,
          "internalType": "address",
          "name": "erc20Token",
          "type": "address"
        },
        {
          "indexed": false,
          "internalType": "uint128",
          "name": "buyNowPrice",
          "type": "uint128"
        },
        {
          "indexed": false,
          "internalType": "address",
          "name": "whitelistedBuyer",
          "type": "address"
        },
        {
          "indexed": false,
          "internalType": "address[]",
          "name": "feeRecipients",
          "type": "address[]"
        },
        {
          "indexed": false,
          "internalType": "uint32[]",
          "name": "feePercentages",
          "type": "uint32[]"
        }
      ],
      "name": "SaleCreated",
      "type": "event"
    },
    {
      "anonymous": false,
      "inputs": [
        {
          "indexed": false,
          "internalType": "address",
          "name": "nftContractAddress",
          "type": "address"
        },
        {
          "indexed": false,
          "internalType": "uint256",
          "name": "tokenId",
          "type": "uint256"
        },
        {
          "indexed": false,
          "internalType": "address",
          "name": "newWhitelistedBuyer",
          "type": "address"
        }
      ],
      "name": "WhitelistedBuyerUpdated",
      "type": "event"
    },
    {
      "inputs": [
        {
          "internalType": "address",
          "name": "_nftContractAddress",
          "type": "address"
        },
        {
          "internalType": "uint256",
          "name": "_tokenId",
          "type": "uint256"
        },
        {
          "internalType": "address",
          "name": "_erc20Token",
          "type": "address"
        },
        {
          "internalType": "uint128",
          "name": "_minPrice",
          "type": "uint128"
        },
        {
          "internalType": "uint128",
          "name": "_buyNowPrice",
          "type": "uint128"
        },
        {
          "internalType": "address[]",
          "name": "_feeRecipients",
          "type": "address[]"
        },
        {
          "internalType": "uint32[]",
          "name": "_feePercentages",
          "type": "uint32[]"
        }
      ],
      "name": "createDefaultNftAuction",
      "outputs": [],
      "stateMutability": "nonpayable",
      "type": "function"
    },
    {
      "inputs": [
        {
          "internalType": "address",
          "name": "_nftContractAddress",
          "type": "address"
        },
        {
          "internalType": "uint256",
          "name": "_tokenId",
          "type": "uint256"
        },
        {
          "internalType": "address",
          "name": "_erc20Token",
          "type": "address"
        },
        {
          "internalType": "uint128",
          "name": "_minPrice",
          "type": "uint128"
        },
        {
          "internalType": "uint128",
          "name": "_buyNowPrice",
          "type": "uint128"
        },
        {
          "internalType": "uint32",
          "name": "_auctionBidPeriod",
          "type": "uint32"
        },
        {
          "internalType": "uint32",
          "name": "_bidIncreasePercentage",
          "type": "uint32"
        },
        {
          "internalType": "address[]",
          "name": "_feeRecipients",
          "type": "address[]"
        },
        {
          "internalType": "uint32[]",
          "name": "_feePercentages",
          "type": "uint32[]"
        }
      ],
      "name": "createNewNftAuction",
      "outputs": [],
      "stateMutability": "nonpayable",
      "type": "function"
    },
    {
      "inputs": [
        {
          "internalType": "address",
          "name": "_nftContractAddress",
          "type": "address"
        },
        {
          "internalType": "uint256",
          "name": "_tokenId",
          "type": "uint256"
        },
        {
          "internalType": "address",
          "name": "_erc20Token",
          "type": "address"
        },
        {
          "internalType": "uint128",
          "name": "_buyNowPrice",
          "type": "uint128"
        },
        {
          "internalType": "address",
          "name": "_whitelistedBuyer",
          "type": "address"
        },
        {
          "internalType": "address[]",
          "name": "_feeRecipients",
          "type": "address[]"
        },
        {
          "internalType": "uint32[]",
          "name": "_feePercentages",
          "type": "uint32[]"
        }
      ],
      "name": "createSale",
      "outputs": [],
      "stateMutability": "nonpayable",
      "type": "function"
    },
    {
      "inputs": [],
      "name": "defaultAuctionBidPeriod",
      "outputs": [
        {
          "internalType": "uint32",
          "name": "",
          "type": "uint32"
        }
      ],
      "stateMutability": "view",
      "type": "function"
    },
    {
      "inputs": [],
      "name": "defaultBidIncreasePercentage",
      "outputs": [
        {
          "internalType": "uint32",
          "name": "",
          "type": "uint32"
        }
      ],
      "stateMutability": "view",
      "type": "function"
    },
    {
      "inputs": [
        {
          "internalType": "address",
          "name": "_nftContractAddress",
          "type": "address"
        },
        {
          "internalType": "uint256",
          "name": "_tokenId",
          "type": "uint256"
        },
        {
          "internalType": "address",
          "name": "_erc20Token",
          "type": "address"
        },
        {
          "internalType": "uint128",
          "name": "_tokenAmount",
          "type": "uint128"
        }
      ],
      "name": "makeBid",
      "outputs": [],
      "stateMutability": "payable",
      "type": "function"
    },
    {
      "inputs": [
        {
          "internalType": "address",
          "name": "_nftContractAddress",
          "type": "address"
        },
        {
          "internalType": "uint256",
          "name": "_tokenId",
          "type": "uint256"
        },
        {
          "internalType": "address",
          "name": "_erc20Token",
          "type": "address"
        },
        {
          "internalType": "uint128",
          "name": "_tokenAmount",
          "type": "uint128"
        },
        {
          "internalType": "address",
          "name": "_nftRecipient",
          "type": "address"
        }
      ],
      "name": "makeCustomBid",
      "outputs": [],
      "stateMutability": "payable",
      "type": "function"
    },
    {
      "inputs": [],
      "name": "maximumMinPricePercentage",
      "outputs": [
        {
          "internalType": "uint32",
          "name": "",
          "type": "uint32"
        }
      ],
      "stateMutability": "view",
      "type": "function"
    },
    {
      "inputs": [],
      "name": "minimumSettableIncreasePercentage",
      "outputs": [
        {
          "internalType": "uint32",
          "name": "",
          "type": "uint32"
        }
      ],
      "stateMutability": "view",
      "type": "function"
    },
    {
      "inputs": [
        {
          "internalType": "address",
          "name": "",
          "type": "address"
        },
        {
          "internalType": "uint256",
          "name": "",
          "type": "uint256"
        }
      ],
      "name": "nftContractAuctions",
      "outputs": [
        {
          "internalType": "uint32",
          "name": "bidIncreasePercentage",
          "type": "uint32"
        },
        {
          "internalType": "uint32",
          "name": "auctionBidPeriod",
          "type": "uint32"
        },
        {
          "internalType": "uint64",
          "name": "auctionEnd",
          "type": "uint64"
        },
        {
          "internalType": "uint128",
          "name": "minPrice",
          "type": "uint128"
        },
        {
          "internalType": "uint128",
          "name": "buyNowPrice",
          "type": "uint128"
        },
        {
          "internalType": "uint128",
          "name": "nftHighestBid",
          "type": "uint128"
        },
        {
          "internalType": "address",
          "name": "nftHighestBidder",
          "type": "address"
        },
        {
          "internalType": "address",
          "name": "nftSeller",
          "type": "address"
        },
        {
          "internalType": "address",
          "name": "whitelistedBuyer",
          "type": "address"
        },
        {
          "internalType": "address",
          "name": "nftRecipient",
          "type": "address"
        },
        {
          "internalType": "address",
          "name": "ERC20Token",
          "type": "address"
        }
      ],
      "stateMutability": "view",
      "type": "function"
    },
    {
      "inputs": [
        {
          "internalType": "address",
          "name": "_nftContractAddress",
          "type": "address"
        },
        {
          "internalType": "uint256",
          "name": "_tokenId",
          "type": "uint256"
        }
      ],
      "name": "ownerOfNFT",
      "outputs": [
        {
          "internalType": "address",
          "name": "",
          "type": "address"
        }
      ],
      "stateMutability": "view",
      "type": "function"
    },
    {
      "inputs": [
        {
          "internalType": "address",
          "name": "_nftContractAddress",
          "type": "address"
        },
        {
          "internalType": "uint256",
          "name": "_tokenId",
          "type": "uint256"
        }
      ],
      "name": "settleAuction",
      "outputs": [],
      "stateMutability": "nonpayable",
      "type": "function"
    },
    {
      "inputs": [
        {
          "internalType": "address",
          "name": "_nftContractAddress",
          "type": "address"
        },
        {
          "internalType": "uint256",
          "name": "_tokenId",
          "type": "uint256"
        }
      ],
      "name": "takeHighestBid",
      "outputs": [],
      "stateMutability": "nonpayable",
      "type": "function"
    },
    {
      "inputs": [
        {
          "internalType": "address",
          "name": "_nftContractAddress",
          "type": "address"
        },
        {
          "internalType": "uint256",
          "name": "_tokenId",
          "type": "uint256"
        },
        {
          "internalType": "uint128",
          "name": "_newBuyNowPrice",
          "type": "uint128"
        }
      ],
      "name": "updateBuyNowPrice",
      "outputs": [],
      "stateMutability": "nonpayable",
      "type": "function"
    },
    {
      "inputs": [
        {
          "internalType": "address",
          "name": "_nftContractAddress",
          "type": "address"
        },
        {
          "internalType": "uint256",
          "name": "_tokenId",
          "type": "uint256"
        },
        {
          "internalType": "uint128",
          "name": "_newMinPrice",
          "type": "uint128"
        }
      ],
      "name": "updateMinimumPrice",
      "outputs": [],
      "stateMutability": "nonpayable",
      "type": "function"
    },
    {
      "inputs": [
        {
          "internalType": "address",
          "name": "_nftContractAddress",
          "type": "address"
        },
        {
          "internalType": "uint256",
          "name": "_tokenId",
          "type": "uint256"
        },
        {
          "internalType": "address",
          "name": "_newWhitelistedBuyer",
          "type": "address"
        }
      ],
      "name": "updateWhitelistedBuyer",
      "outputs": [],
      "stateMutability": "nonpayable",
      "type": "function"
    },
    {
      "inputs": [],
      "name": "withdrawAllFailedCredits",
      "outputs": [],
      "stateMutability": "nonpayable",
      "type": "function"
    },
    {
      "inputs": [
        {
          "internalType": "address",
          "name": "_nftContractAddress",
          "type": "address"
        },
        {
          "internalType": "uint256",
          "name": "_tokenId",
          "type": "uint256"
        }
      ],
      "name": "withdrawAuction",
      "outputs": [],
      "stateMutability": "nonpayable",
      "type": "function"
    },
    {
      "inputs": [
        {
          "internalType": "address",
          "name": "_nftContractAddress",
          "type": "address"
        },
        {
          "internalType": "uint256",
          "name": "_tokenId",
          "type": "uint256"
        }
      ],
      "name": "withdrawBid",
      "outputs": [],
      "stateMutability": "nonpayable",
      "type": "function"
    }
  ],
  "transactionHash": "0xfea70801fff56a1c5ea784f5c3eabac9af5502e5a6d127da83d545b80ee56cbf",
  "args": [],
  "solcInputHash": "0a8f40e8af3f92b86b8697988c45b0de",
  "bytecode": "0x608060405234801561001057600080fd5b50600280546001600160801b0319166e01518000001f40000001f4000003e8179055613b62806100416000396000f3fe6080604052600436106101145760003560e01c8063848e5c77116100a0578063cd4eda1c11610064578063cd4eda1c14610405578063ebea602514610429578063f45671f114610449578063f583bac714610469578063f7f829a41461048957600080fd5b8063848e5c77146103805780639041e273146103a05780639c0b9966146103c0578063b6ad6914146103dd578063c24d5a5c146103f257600080fd5b80632f9c9576116100e75780632f9c9576146102e85780633d87d5fb146103085780634cb8ef5b1461032d5780635138b08c1461034d578063565c51721461036d57600080fd5b8063041fa0b814610119578063076b73ac14610255578063186779d51461027757806320950fc6146102b0575b600080fd5b34801561012557600080fd5b506101cc61013436600461348b565b6000602081815292815260408082209093529081522080546001820154600283015460038401546004850154600586015460069096015463ffffffff8087169764010000000088049091169667ffffffffffffffff600160401b820416966001600160801b03600160801b92839004811697828216979390920416946001600160a01b0391821694928216939082169290821691168b565b6040805163ffffffff9c8d1681529b909a1660208c015267ffffffffffffffff909816988a01989098526001600160801b0395861660608a015293851660808901529390911660a08701526001600160a01b0390811660c087015291821660e0860152811661010085015291821661012084015216610140820152610160015b60405180910390f35b34801561026157600080fd5b506102756102703660046134b6565b6104a9565b005b34801561028357600080fd5b5060025461029b90600160601b900463ffffffff1681565b60405163ffffffff909116815260200161024c565b3480156102bc57600080fd5b506102d06102cb36600461348b565b61064a565b6040516001600160a01b03909116815260200161024c565b3480156102f457600080fd5b5061027561030336600461378a565b6106c9565b34801561031457600080fd5b5060025461029b90640100000000900463ffffffff1681565b34801561033957600080fd5b5061027561034836600461348b565b6109ad565b34801561035957600080fd5b5061027561036836600461348b565b610b25565b61027561037b366004613547565b610bdb565b34801561038c57600080fd5b5061027561039b36600461348b565b610d7f565b3480156103ac57600080fd5b506102756103bb36600461365f565b610ebe565b3480156103cc57600080fd5b5060025461029b9063ffffffff1681565b3480156103e957600080fd5b5061027561109c565b6102756104003660046134f7565b6111a4565b34801561041157600080fd5b5060025461029b90600160401b900463ffffffff1681565b34801561043557600080fd5b5061027561044436600461348b565b6112b5565b34801561045557600080fd5b506102756104643660046135ac565b6113d0565b34801561047557600080fd5b506102756104843660046136b7565b61166e565b34801561049557600080fd5b506102756104a436600461378a565b61196f565b6001600160a01b03838116600090815260208181526040808320868452909152902060030154849184911633146105195760405162461bcd60e51b815260206004820152600f60248201526e27b7363c9037333a1039b2b63632b960891b60448201526064015b60405180910390fd5b6105238585611b7f565b61055c5760405162461bcd60e51b815260206004820152600a6024820152694e6f7420612073616c6560b01b6044820152606401610510565b6001600160a01b0385811660009081526020818152604080832088845290915290206004810180546001600160a01b0319168684161790556002810154600190910154911690600160801b90046001600160801b031680158015906105d35750846001600160a01b0316826001600160a01b031614155b156105f7576105e28787611bee565b6105f7878784846001600160801b0316611c44565b604080516001600160a01b0389811682526020820189905287168183015290517f7502912f483c1fb3f89bf8664bea10db517c2093040d379e78e169e0675236469181900360600190a150505050505050565b6001600160a01b03808316600090815260208181526040808320858452909152812060030154909116806106c05760405162461bcd60e51b815260206004820152601160248201527f4e4654206e6f74206465706f73697465640000000000000000000000000000006044820152606401610510565b90505b92915050565b6001600160a01b03838116600090815260208181526040808320868452909152902060030154849184911633146107345760405162461bcd60e51b815260206004820152600f60248201526e27b7363c9037333a1039b2b63632b960891b6044820152606401610510565b84846107408282611d9b565b1561078d5760405162461bcd60e51b815260206004820181905260248201527f5468652061756374696f6e2068617320612076616c696420626964206d6164656044820152606401610510565b86866107998282611b7f565b156107e65760405162461bcd60e51b815260206004820152601960248201527f4e6f74206170706c696361626c6520666f7220612073616c65000000000000006044820152606401610510565b866001600160801b0316600081116108345760405162461bcd60e51b8152602060048201526011602482015270050726963652063616e6e6f74206265203607c1b6044820152606401610510565b6001600160a01b038a166000908152602081815260408083208c84529091529020600101546001600160801b03168881158061089657506002546001600160801b038281169161089391851690600160401b900463ffffffff16611e1b565b10155b6108e25760405162461bcd60e51b815260206004820152601d60248201527f4d696e5072696365203e20383025206f66206275794e6f7750726963650000006044820152606401610510565b6001600160a01b038c166000908152602081815260408083208e84529091529081902080546001600160801b03808e16600160801b029116179055517fdcf27af4c564afa0c536dd1fa48e5fef0d9833378a1bddacc95922b902ebfc3290610974908e908e908e906001600160a01b0393909316835260208301919091526001600160801b0316604082015260600190565b60405180910390a16109868c8c611d9b565b1561099f576109958c8c611e34565b61099f8c8c6120ea565b505050505050505050505050565b81816109b98282611d9b565b15610a065760405162461bcd60e51b815260206004820181905260248201527f5468652061756374696f6e2068617320612076616c696420626964206d6164656044820152606401610510565b6001600160a01b0380851660009081526020818152604080832087845290915290206002015416338114610a7c5760405162461bcd60e51b815260206004820152601560248201527f43616e6e6f742077697468647261772066756e647300000000000000000000006044820152606401610510565b6001600160a01b038516600090815260208181526040808320878452909152902060010154600160801b90046001600160801b0316610abb8686611bee565b610ad0868684846001600160801b0316611c44565b604080516001600160a01b03881681526020810187905233918101919091527f10d9bddf66f639dd3c5a6ad2db5ae3102c2b468dfb90a4b0da219435f24a970d906060015b60405180910390a1505050505050565b8181610b318282612197565b15610b7e5760405162461bcd60e51b815260206004820152601760248201527f41756374696f6e206973206e6f7420796574206f7665720000000000000000006044820152606401610510565b610b8884846121e5565b604080516001600160a01b03861681526020810185905233918101919091527fe6b94748c5d6e0d188a0fcb9b7f2973b01fc0095627f1ec5accdcd9d2e65ca36906060015b60405180910390a150505050565b8484610be78282612197565b610c275760405162461bcd60e51b8152602060048201526011602482015270105d58dd1a5bdb881a185cc8195b991959607a1b6044820152606401610510565b826001600160a01b038116610c7e5760405162461bcd60e51b815260206004820152601860248201527f43616e6e6f7420737065636966792030206164647265737300000000000000006044820152606401610510565b8787610cb082826001600160a01b03918216600090815260208181526040808320938352929052206004015416151590565b1580610ce157506001600160a01b038281166000908152602081815260408083208584529091529020600401541633145b610d2d5760405162461bcd60e51b815260206004820152601a60248201527f4f6e6c79207468652077686974656c69737465642062757965720000000000006044820152606401610510565b6001600160a01b038a81166000908152602081815260408083208d8452909152902060050180546001600160a01b031916918816919091179055610d738a8a8a8a612356565b50505050505050505050565b6001600160a01b0382811660009081526020818152604080832085845290915290206003015483918391163314610dea5760405162461bcd60e51b815260206004820152600f60248201526e27b7363c9037333a1039b2b63632b960891b6044820152606401610510565b6001600160a01b038416600090815260208181526040808320868452909152902060010154600160801b90046001600160801b0316610e6b5760405162461bcd60e51b815260206004820152601360248201527f63616e6e6f74207061796f7574203020626964000000000000000000000000006044820152606401610510565b610e758484611e34565b610e7f84846121e5565b604080516001600160a01b0386168152602081018590527f711f4eae05533b90c24ff0ae762d6e9e1ef1b2c85d4c484a2913c5201bcbb7c99101610bcd565b6001600160a01b038088166000908152602081815260408083208a84529091529020600301548891889116331415610f385760405162461bcd60e51b815260206004820181905260248201527f41756374696f6e20616c72656164792073746172746564206279206f776e65726044820152606401610510565b6001600160a01b03828116600090815260208181526040808320858452909152902060030154161561103f576040516331a9108f60e11b8152600481018290526001600160a01b03831690636352211e9060240160206040518083038186803b158015610fa457600080fd5b505afa158015610fb8573d6000803e3d6000fd5b505050506040513d601f19601f82011682018060405250810190610fdc919061346f565b6001600160a01b0316336001600160a01b0316146110355760405162461bcd60e51b815260206004820152601660248201527514d95b99195c88191bd95cdb89dd081bdddb8813919560521b6044820152606401610510565b61103f828261251b565b856001600160801b03166000811161108d5760405162461bcd60e51b8152602060048201526011602482015270050726963652063616e6e6f74206265203607c1b6044820152606401610510565b610d738a8a8a8a8a8a8a612581565b33600090815260016020526040902054806110f95760405162461bcd60e51b815260206004820152601660248201527f6e6f206372656469747320746f207769746864726177000000000000000000006044820152606401610510565b336000818152600160205260408082208290555190919083908381818185875af1925050503d806000811461114a576040519150601f19603f3d011682016040523d82523d6000602084013e61114f565b606091505b50509050806111a05760405162461bcd60e51b815260206004820152600f60248201527f7769746864726177206661696c656400000000000000000000000000000000006044820152606401610510565b5050565b83836111b08282612197565b6111f05760405162461bcd60e51b8152602060048201526011602482015270105d58dd1a5bdb881a185cc8195b991959607a1b6044820152606401610510565b858561122282826001600160a01b03918216600090815260208181526040808320938352929052206004015416151590565b158061125357506001600160a01b038281166000908152602081815260408083208584529091529020600401541633145b61129f5760405162461bcd60e51b815260206004820152601a60248201527f4f6e6c79207468652077686974656c69737465642062757965720000000000006044820152606401610510565b6112ab88888888612356565b5050505050505050565b6040516331a9108f60e11b81526004810182905233906001600160a01b03841690636352211e9060240160206040518083038186803b1580156112f757600080fd5b505afa15801561130b573d6000803e3d6000fd5b505050506040513d601f19601f8201168201806040525081019061132f919061346f565b6001600160a01b0316146113755760405162461bcd60e51b815260206004820152600d60248201526c2737ba1027232a1037bbb732b960991b6044820152606401610510565b61137f828261251b565b604080516001600160a01b03841681526020810183905233918101919091527fec19f84af4aad6523d37faa19e243c77717842cca9bf492dc5379830cac958d0906060015b60405180910390a15050565b6001600160a01b038088166000908152602081815260408083208a8452909152902060030154889188911633141561144a5760405162461bcd60e51b815260206004820181905260248201527f41756374696f6e20616c72656164792073746172746564206279206f776e65726044820152606401610510565b6001600160a01b038281166000908152602081815260408083208584529091529020600301541615611551576040516331a9108f60e11b8152600481018290526001600160a01b03831690636352211e9060240160206040518083038186803b1580156114b657600080fd5b505afa1580156114ca573d6000803e3d6000fd5b505050506040513d601f19601f820116820180604052508101906114ee919061346f565b6001600160a01b0316336001600160a01b0316146115475760405162461bcd60e51b815260206004820152601660248201527514d95b99195c88191bd95cdb89dd081bdddb8813919560521b6044820152606401610510565b611551828261251b565b856001600160801b03166000811161159f5760405162461bcd60e51b8152602060048201526011602482015270050726963652063616e6e6f74206265203607c1b6044820152606401610510565b6115ae8a8a8a8a8a8a8a6125fe565b7fb4cb1faa7b4f2b837334e4a12fb94a1cfc320c32b70dd31e113d1795b9d0f0568a8a338b8b8b8b8b6040516115eb98979695949392919061385f565b60405180910390a16001600160a01b038a166000908152602081815260408083208c8452909152902060010154600160801b90046001600160801b031615610d73576116378a8a61282e565b15611664576116468a8a612895565b1561165f576116558a8a611e34565b61165f8a8a6121e5565b610d73565b610d738a8a612911565b6001600160a01b03808a166000908152602081815260408083208c84529091529020600301548a918a91163314156116e85760405162461bcd60e51b815260206004820181905260248201527f41756374696f6e20616c72656164792073746172746564206279206f776e65726044820152606401610510565b6001600160a01b0382811660009081526020818152604080832085845290915290206003015416156117ef576040516331a9108f60e11b8152600481018290526001600160a01b03831690636352211e9060240160206040518083038186803b15801561175457600080fd5b505afa158015611768573d6000803e3d6000fd5b505050506040513d601f19601f8201168201806040525081019061178c919061346f565b6001600160a01b0316336001600160a01b0316146117e55760405162461bcd60e51b815260206004820152601660248201527514d95b99195c88191bd95cdb89dd081bdddb8813919560521b6044820152606401610510565b6117ef828261251b565b876001600160801b03166000811161183d5760405162461bcd60e51b8152602060048201526011602482015270050726963652063616e6e6f74206265203607c1b6044820152606401610510565b600254869063ffffffff640100000000909104811690821610156118a35760405162461bcd60e51b815260206004820152601f60248201527f42696420696e6372656173652070657263656e7461676520746f6f206c6f77006044820152606401610510565b876000808f6001600160a01b03166001600160a01b0316815260200190815260200160002060008e815260200190815260200160002060000160046101000a81548163ffffffff021916908363ffffffff160217905550866000808f6001600160a01b03166001600160a01b0316815260200190815260200160002060008e815260200190815260200160002060000160006101000a81548163ffffffff021916908363ffffffff1602179055506119608d8d8d8d8d8b8b612581565b50505050505050505050505050565b6001600160a01b03838116600090815260208181526040808320868452909152902060030154849184911633146119da5760405162461bcd60e51b815260206004820152600f60248201526e27b7363c9037333a1039b2b63632b960891b6044820152606401610510565b826001600160801b031660008111611a285760405162461bcd60e51b8152602060048201526011602482015270050726963652063616e6e6f74206265203607c1b6044820152606401610510565b6001600160a01b03861660009081526020818152604080832088845290915290205484906001600160801b03600160801b90910481169082161580611a9357506002546001600160801b0382811691611a9091851690600160401b900463ffffffff16611e1b565b10155b611adf5760405162461bcd60e51b815260206004820152601d60248201527f4d696e5072696365203e20383025206f66206275794e6f7750726963650000006044820152606401610510565b6001600160a01b0388166000818152602081815260408083208b845282529182902060010180546001600160801b0319166001600160801b038b1690811790915582519384529083018a9052908201527fcc66420416a999e685e3938d2c6252ed709db214d0435f13da0b1e5339bcac769060600160405180910390a1611b668888612895565b156112ab57611b758888611e34565b6112ab88886121e5565b6001600160a01b0382166000908152602081815260408083208484529091528120600101546001600160801b0316158015906106c05750506001600160a01b03919091166000908152602081815260408083209383529290522054600160801b90046001600160801b03161590565b6001600160a01b0391909116600090815260208181526040808320938352929052206002810180546001600160a01b03199081169091556001820180546001600160801b03169055600590910180549091169055565b6001600160a01b03848116600090815260208181526040808320878452909152902060060154168015611cf95760405163a9059cbb60e01b81526001600160a01b0384811660048301526024820184905282169063a9059cbb90604401602060405180830381600087803b158015611cbb57600080fd5b505af1158015611ccf573d6000803e3d6000fd5b505050506040513d601f19601f82011682018060405250810190611cf391906137c7565b50611d94565b6000836001600160a01b03168360405160006040518083038185875af1925050503d8060008114611d46576040519150601f19603f3d011682016040523d82523d6000602084013e611d4b565b606091505b5050905080611d92576001600160a01b038416600090815260016020526040902054611d789084906139b5565b6001600160a01b0385166000908152600160205260409020555b505b5050505050565b6001600160a01b038216600090815260208181526040808320848452909152812054600160801b90046001600160801b03168015801590611e1357506001600160a01b0384166000908152602081815260408083208684529091529020600101546001600160801b03808316600160801b9092041610155b949350505050565b6000612710611e2a8385613a81565b6106c09190613a3e565b6001600160a01b03828116600081815260208181526040808320868452909152908190206003015490516331a9108f60e11b815260048101859052921691829190636352211e9060240160206040518083038186803b158015611e9657600080fd5b505afa158015611eaa573d6000803e3d6000fd5b505050506040513d601f19601f82011682018060405250810190611ece919061346f565b6001600160a01b0316141561201a576040516323b872dd60e01b81526001600160a01b038281166004830152306024830152604482018490528416906323b872dd90606401600060405180830381600087803b158015611f2d57600080fd5b505af1158015611f41573d6000803e3d6000fd5b50506040516331a9108f60e11b8152600481018590523092506001600160a01b0386169150636352211e9060240160206040518083038186803b158015611f8757600080fd5b505afa158015611f9b573d6000803e3d6000fd5b505050506040513d601f19601f82011682018060405250810190611fbf919061346f565b6001600160a01b0316146120155760405162461bcd60e51b815260206004820152601360248201527f6e6674207472616e73666572206661696c6564000000000000000000000000006044820152606401610510565b505050565b6040516331a9108f60e11b81526004810183905230906001600160a01b03851690636352211e9060240160206040518083038186803b15801561205c57600080fd5b505afa158015612070573d6000803e3d6000fd5b505050506040513d601f19601f82011682018060405250810190612094919061346f565b6001600160a01b0316146120155760405162461bcd60e51b815260206004820152601660248201527f53656c6c657220646f65736e2774206f776e204e4654000000000000000000006044820152606401610510565b426120f58383612976565b63ffffffff1661210591906139f5565b6001600160a01b03831660008181526020818152604080832086845282529182902080546fffffffffffffffff00000000000000001916600160401b67ffffffffffffffff96871681029190911791829055835194855291840186905204909216918101919091527fc1ce6cc1337b95ed3c849e00bffc0d93e89e5e80cc5d198db838140827ac7594906060016113c4565b6001600160a01b038216600090815260208181526040808320848452909152812054600160401b900467ffffffffffffffff16801580611e13575067ffffffffffffffff1642109392505050565b6001600160a01b038281166000908152602081815260408083208584529091528120600381015460029091015490831692169061222285856129c9565b6001600160a01b038616600090815260208181526040808320888452909152902060010154909150600160801b90046001600160801b03166122648686611bee565b612279868686846001600160801b0316612a25565b6040516323b872dd60e01b81523060048201526001600160a01b038381166024830152604482018790528716906323b872dd90606401600060405180830381600087803b1580156122c957600080fd5b505af11580156122dd573d6000803e3d6000fd5b505050506122eb868661251b565b604080516001600160a01b03808916825260208201889052808716928201929092526001600160801b0383166060820152818516608082015290831660a08201527f8df77c988c9550e96e43a66277f716818a74ed2188cdacb49d790623e6f225719060c001610b15565b6001600160a01b0384811660009081526020818152604080832087845290915290206003015485918591163314156123d05760405162461bcd60e51b815260206004820152601b60248201527f4f776e65722063616e6e6f7420626964206f6e206f776e204e465400000000006044820152606401610510565b858585856123e084848484612b67565b61242c5760405162461bcd60e51b815260206004820181905260248201527f42696420746f20626520696e207370656369666965642045524332302f4574686044820152606401610510565b89898861243a838383612c02565b6124865760405162461bcd60e51b815260206004820152601e60248201527f4e6f7420656e6f7567682066756e647320746f20626964206f6e204e465400006044820152606401610510565b6124918d8d8c612d0c565b7fdfd4ac8cb43d5458b7a6f74f2d6461d77d4985704bdbc2fd4c4816444bbfd5e08d8d33348f8f604051612509969594939291906001600160a01b03968716815260208101959095529285166040850152606084019190915290921660808201526001600160801b039190911660a082015260c00190565b60405180910390a16119608d8d612d72565b6001600160a01b03919091166000908152602081815260408083209383529290529081206001810180546001600160801b03191690559081556003810180546001600160a01b031990811690915560048201805482169055600690910180549091169055565b61259087878787878787612db8565b7f3379e969de5522101a0f0912ffe00daf15361dbcbf9cd5c328e0dd97aa25cdf98787338888886125c18e8e612976565b6125cb8f8f613094565b8a8a6040516125e39a999897969594939291906138d4565b60405180910390a16125f58787612d72565b50505050505050565b815181518082146126515760405162461bcd60e51b815260206004820152601960248201527f526563697069656e747320213d2070657263656e7461676573000000000000006044820152606401610510565b826000805b82518110156126a65782818151811061267f57634e487b7160e01b600052603260045260246000fd5b60200260200101518261269291906139cd565b91508061269e81613ab7565b915050612656565b506127108163ffffffff1611156126ff5760405162461bcd60e51b815260206004820152601e60248201527f4665652070657263656e746167657320657863656564206d6178696d756d00006044820152606401610510565b6001600160a01b03891615612749576001600160a01b038b81166000908152602081815260408083208e8452909152902060060180546001600160a01b031916918b169190911790555b6001600160a01b038b166000908152602081815260408083208d84528252909120875161277e92600790920191890190613243565b506001600160a01b038b166000908152602081815260408083208d8452825290912086516127b4926008909201918801906132a8565b505050506001600160a01b03978816600090815260208181526040808320998352989052969096206001810180546001600160801b03969096166001600160801b0319909616959095179094555050600482018054919095166001600160a01b031991821617909455600301805490931633179092555050565b6001600160a01b0382811660009081526020818152604080832085845290915281206004015490911615806106c057506001600160a01b038084166000908152602081815260408083208684529091529020600481015460029091015482169116146106c0565b6001600160a01b0382166000908152602081815260408083208484529091528120600101546001600160801b03168015801590611e1357506001600160a01b0384166000908152602081815260408083208684529091529020600101546001600160801b03808316600160801b90920416101591505092915050565b6001600160a01b0382811660009081526020818152604080832085845290915290206002810154600190910154911690600160801b90046001600160801b031661295b8484611bee565b612970848484846001600160801b0316611c44565b50505050565b6001600160a01b038216600090815260208181526040808320848452909152812054640100000000900463ffffffff16806129c2575050600254600160601b900463ffffffff166106c3565b90506106c3565b6001600160a01b03808316600090815260208181526040808320858452909152812060050154909116806129c25750506001600160a01b03808316600090815260208181526040808320858452909152902060020154166106c3565b6000805b6001600160a01b038616600090815260208181526040808320888452909152902060070154811015612b51576001600160a01b03861660009081526020818152604080832088845290915281206008018054612ac891869185908110612a9f57634e487b7160e01b600052603260045260246000fd5b6000918252602090912060088204015460079091166004026101000a900463ffffffff16611e1b565b9050612ad481846139b5565b6001600160a01b0388166000908152602081815260408083208a845290915290206007018054919450612b3e918991899186908110612b2357634e487b7160e01b600052603260045260246000fd5b6000918252602090912001546001600160a01b031684611c44565b5080612b4981613ab7565b915050612a29565b50611d94858585612b628587613aa0565b611c44565b6001600160a01b038481166000908152602081815260408083208784529091528120600601549091168015612bd25734158015612bb55750836001600160a01b0316816001600160a01b0316145b8015612bca57506000836001600160801b0316115b915050611e13565b3415801590612be857506001600160a01b038416155b8015612bca575050506001600160801b0316159392505050565b6001600160a01b0383166000908152602081815260408083208584529091528120600101546001600160801b03168015801590612c645750806001600160801b031634101580612c645750806001600160801b0316836001600160801b031610155b15612c73576001915050612d05565b6000612710612c828787613094565b612c8e906127106139cd565b6001600160a01b0388166000908152602081815260408083208a8452909152902060010154612cd39163ffffffff1690600160801b90046001600160801b0316613a52565b612cdd9190613a18565b6001600160801b031690508034101580612d00575080846001600160801b031610155b925050505b9392505050565b6001600160a01b0383811660009081526020818152604080832086845290915290206002810154600190910154911690600160801b90046001600160801b0316612d578585856130d1565b6001600160a01b03821615611d9457611d9485858484611c44565b612d7c8282612895565b15612d9557612d8b8282611e34565b6111a082826121e5565b612d9f8282611d9b565b156111a057612dae8282611e34565b6111a082826120ea565b82846001600160801b0382161580612df657506002546001600160801b0382811691612df391851690600160401b900463ffffffff16611e1b565b10155b612e425760405162461bcd60e51b815260206004820152601d60248201527f4d696e5072696365203e20383025206f66206275794e6f7750726963650000006044820152606401610510565b83518351808214612e955760405162461bcd60e51b815260206004820152601960248201527f526563697069656e747320213d2070657263656e7461676573000000000000006044820152606401610510565b846000805b8251811015612eea57828181518110612ec357634e487b7160e01b600052603260045260246000fd5b602002602001015182612ed691906139cd565b915080612ee281613ab7565b915050612e9a565b506127108163ffffffff161115612f435760405162461bcd60e51b815260206004820152601e60248201527f4665652070657263656e746167657320657863656564206d6178696d756d00006044820152606401610510565b6001600160a01b038b1615612fb0578a6000808f6001600160a01b03166001600160a01b0316815260200190815260200160002060008e815260200190815260200160002060060160006101000a8154816001600160a01b0302191690836001600160a01b031602179055505b6001600160a01b038d166000908152602081815260408083208f845282529091208951612fe5926007909201918b0190613243565b506001600160a01b038d166000908152602081815260408083208f84528252909120885161301b926008909201918a01906132a8565b505050506001600160a01b03999099166000908152602081815260408083209a8352999052979097206001810180546001600160801b039687166001600160801b03199091161790558054958516600160801b0295909416949094178355505060030180546001600160a01b0319163317905550505050565b6001600160a01b03821660009081526020818152604080832084845290915281205463ffffffff16806129c257505060025463ffffffff166106c3565b6001600160a01b038381166000908152602081815260408083208684529091529020600601541680156131ce576040516323b872dd60e01b81523360048201523060248201526001600160801b03831660448201526001600160a01b038216906323b872dd90606401602060405180830381600087803b15801561315457600080fd5b505af1158015613168573d6000803e3d6000fd5b505050506040513d601f19601f8201168201806040525081019061318c91906137c7565b506001600160a01b038416600090815260208181526040808320868452909152902060010180546001600160801b03808516600160801b02911617905561320b565b6001600160a01b038416600090815260208181526040808320868452909152902060010180546001600160801b03348116600160801b0291161790555b50506001600160a01b039091166000908152602081815260408083209383529290522060020180546001600160a01b03191633179055565b828054828255906000526020600020908101928215613298579160200282015b8281111561329857825182546001600160a01b0319166001600160a01b03909116178255602090920191600190910190613263565b506132a492915061334e565b5090565b828054828255906000526020600020906007016008900481019282156132985791602002820160005b8382111561331557835183826101000a81548163ffffffff021916908363ffffffff16021790555092602001926004016020816003010492830192600103026132d1565b80156133455782816101000a81549063ffffffff0219169055600401602081600301049283019260010302613315565b50506132a49291505b5b808211156132a4576000815560010161334f565b600082601f830112613373578081fd5b8135602061338861338383613991565b613960565b80838252828201915082860187848660051b89010111156133a7578586fd5b855b858110156133ce5781356133bc81613b14565b845292840192908401906001016133a9565b5090979650505050505050565b600082601f8301126133eb578081fd5b813560206133fb61338383613991565b80838252828201915082860187848660051b890101111561341a578586fd5b855b858110156133ce5761342d8261345b565b8452928401929084019060010161341c565b80356001600160801b038116811461345657600080fd5b919050565b803563ffffffff8116811461345657600080fd5b600060208284031215613480578081fd5b81516106c081613b14565b6000806040838503121561349d578081fd5b82356134a881613b14565b946020939093013593505050565b6000806000606084860312156134ca578081fd5b83356134d581613b14565b92506020840135915060408401356134ec81613b14565b809150509250925092565b6000806000806080858703121561350c578081fd5b843561351781613b14565b935060208501359250604085013561352e81613b14565b915061353c6060860161343f565b905092959194509250565b600080600080600060a0868803121561355e578081fd5b853561356981613b14565b945060208601359350604086013561358081613b14565b925061358e6060870161343f565b9150608086013561359e81613b14565b809150509295509295909350565b600080600080600080600060e0888a0312156135c6578182fd5b87356135d181613b14565b96506020880135955060408801356135e881613b14565b94506135f66060890161343f565b9350608088013561360681613b14565b925060a088013567ffffffffffffffff80821115613622578384fd5b61362e8b838c01613363565b935060c08a0135915080821115613643578283fd5b506136508a828b016133db565b91505092959891949750929550565b600080600080600080600060e0888a031215613679578283fd5b873561368481613b14565b965060208801359550604088013561369b81613b14565b94506136a96060890161343f565b93506136066080890161343f565b60008060008060008060008060006101208a8c0312156136d5578283fd5b89356136e081613b14565b985060208a0135975060408a01356136f781613b14565b965061370560608b0161343f565b955061371360808b0161343f565b945061372160a08b0161345b565b935061372f60c08b0161345b565b925060e08a013567ffffffffffffffff8082111561374b578384fd5b6137578d838e01613363565b93506101008c013591508082111561376d578283fd5b5061377a8c828d016133db565b9150509295985092959850929598565b60008060006060848603121561379e578081fd5b83356137a981613b14565b9250602084013591506137be6040850161343f565b90509250925092565b6000602082840312156137d8578081fd5b815180151581146106c0578182fd5b6000815180845260208085019450808401835b8381101561381f5781516001600160a01b0316875295820195908201906001016137fa565b509495945050505050565b6000815180845260208085019450808401835b8381101561381f57815163ffffffff168752958201959082019060010161383d565b60006101006001600160a01b03808c1684528a6020850152808a16604085015280891660608501526001600160801b038816608085015280871660a0850152508060c08401526138b1818401866137e7565b905082810360e08401526138c5818561382a565b9b9a5050505050505050505050565b6001600160a01b038b81168252602082018b90528981166040830152881660608201526001600160801b038781166080830152861660a082015263ffffffff85811660c0830152841660e082015260006101408061010084015261393a818401866137e7565b905082810361012084015261394f818561382a565b9d9c50505050505050505050505050565b604051601f8201601f1916810167ffffffffffffffff8111828210171561398957613989613afe565b604052919050565b600067ffffffffffffffff8211156139ab576139ab613afe565b5060051b60200190565b600082198211156139c8576139c8613ad2565b500190565b600063ffffffff8083168185168083038211156139ec576139ec613ad2565b01949350505050565b600067ffffffffffffffff8083168185168083038211156139ec576139ec613ad2565b60006001600160801b0380841680613a3257613a32613ae8565b92169190910492915050565b600082613a4d57613a4d613ae8565b500490565b60006001600160801b0380831681851681830481118215151615613a7857613a78613ad2565b02949350505050565b6000816000190483118215151615613a9b57613a9b613ad2565b500290565b600082821015613ab257613ab2613ad2565b500390565b6000600019821415613acb57613acb613ad2565b5060010190565b634e487b7160e01b600052601160045260246000fd5b634e487b7160e01b600052601260045260246000fd5b634e487b7160e01b600052604160045260246000fd5b6001600160a01b0381168114613b2957600080fd5b5056fea2646970667358221220af90c3084d2e5f1498c0d8aeee9fbb3b73fb4b669695389252b271ea3de14d0a64736f6c63430008040033",
  "devdoc": {
    "author": "Avo Labs GmbH",
    "kind": "dev",
    "methods": {},
    "title": "An Auction Contract for bidding and selling single and batched NFTs",
    "version": 1
  },
  "userdoc": {
    "kind": "user",
    "methods": {
      "createDefaultNftAuction(address,uint256,address,uint128,uint128,address[],uint32[])": {
        "notice": "Create an auction that uses the default bid increase percentage & the default auction bid period."
      }
    },
    "notice": "This contract can be used for auctioning any NFTs, and accepts any ERC20 token as payment",
    "version": 1
  },
  "storageLayout": {
    "storage": [
      {
        "astId": 2261,
        "contract": "contracts/NFTAuction.sol:NFTAuction",
        "label": "nftContractAuctions",
        "offset": 0,
        "slot": "0",
        "type": "t_mapping(t_address,t_mapping(t_uint256,t_struct(Auction)2294_storage))"
      },
      {
        "astId": 2265,
        "contract": "contracts/NFTAuction.sol:NFTAuction",
        "label": "failedTransferCredits",
        "offset": 0,
        "slot": "1",
        "type": "t_mapping(t_address,t_uint256)"
      },
      {
        "astId": 2296,
        "contract": "contracts/NFTAuction.sol:NFTAuction",
        "label": "defaultBidIncreasePercentage",
        "offset": 0,
        "slot": "2",
        "type": "t_uint32"
      },
      {
        "astId": 2298,
        "contract": "contracts/NFTAuction.sol:NFTAuction",
        "label": "minimumSettableIncreasePercentage",
        "offset": 4,
        "slot": "2",
        "type": "t_uint32"
      },
      {
        "astId": 2300,
        "contract": "contracts/NFTAuction.sol:NFTAuction",
        "label": "maximumMinPricePercentage",
        "offset": 8,
        "slot": "2",
        "type": "t_uint32"
      },
      {
        "astId": 2302,
        "contract": "contracts/NFTAuction.sol:NFTAuction",
        "label": "defaultAuctionBidPeriod",
        "offset": 12,
        "slot": "2",
        "type": "t_uint32"
      }
    ],
    "types": {
      "t_address": {
        "encoding": "inplace",
        "label": "address",
        "numberOfBytes": "20"
      },
      "t_array(t_address)dyn_storage": {
        "base": "t_address",
        "encoding": "dynamic_array",
        "label": "address[]",
        "numberOfBytes": "32"
      },
      "t_array(t_uint32)dyn_storage": {
        "base": "t_uint32",
        "encoding": "dynamic_array",
        "label": "uint32[]",
        "numberOfBytes": "32"
      },
      "t_mapping(t_address,t_mapping(t_uint256,t_struct(Auction)2294_storage))": {
        "encoding": "mapping",
        "key": "t_address",
        "label": "mapping(address => mapping(uint256 => struct NFTAuction.Auction))",
        "numberOfBytes": "32",
        "value": "t_mapping(t_uint256,t_struct(Auction)2294_storage)"
      },
      "t_mapping(t_address,t_uint256)": {
        "encoding": "mapping",
        "key": "t_address",
        "label": "mapping(address => uint256)",
        "numberOfBytes": "32",
        "value": "t_uint256"
      },
      "t_mapping(t_uint256,t_struct(Auction)2294_storage)": {
        "encoding": "mapping",
        "key": "t_uint256",
        "label": "mapping(uint256 => struct NFTAuction.Auction)",
        "numberOfBytes": "32",
        "value": "t_struct(Auction)2294_storage"
      },
      "t_struct(Auction)2294_storage": {
        "encoding": "inplace",
        "label": "struct NFTAuction.Auction",
        "members": [
          {
            "astId": 2267,
            "contract": "contracts/NFTAuction.sol:NFTAuction",
            "label": "bidIncreasePercentage",
            "offset": 0,
            "slot": "0",
            "type": "t_uint32"
          },
          {
            "astId": 2269,
            "contract": "contracts/NFTAuction.sol:NFTAuction",
            "label": "auctionBidPeriod",
            "offset": 4,
            "slot": "0",
            "type": "t_uint32"
          },
          {
            "astId": 2271,
            "contract": "contracts/NFTAuction.sol:NFTAuction",
            "label": "auctionEnd",
            "offset": 8,
            "slot": "0",
            "type": "t_uint64"
          },
          {
            "astId": 2273,
            "contract": "contracts/NFTAuction.sol:NFTAuction",
            "label": "minPrice",
            "offset": 16,
            "slot": "0",
            "type": "t_uint128"
          },
          {
            "astId": 2275,
            "contract": "contracts/NFTAuction.sol:NFTAuction",
            "label": "buyNowPrice",
            "offset": 0,
            "slot": "1",
            "type": "t_uint128"
          },
          {
            "astId": 2277,
            "contract": "contracts/NFTAuction.sol:NFTAuction",
            "label": "nftHighestBid",
            "offset": 16,
            "slot": "1",
            "type": "t_uint128"
          },
          {
            "astId": 2279,
            "contract": "contracts/NFTAuction.sol:NFTAuction",
            "label": "nftHighestBidder",
            "offset": 0,
            "slot": "2",
            "type": "t_address"
          },
          {
            "astId": 2281,
            "contract": "contracts/NFTAuction.sol:NFTAuction",
            "label": "nftSeller",
            "offset": 0,
            "slot": "3",
            "type": "t_address"
          },
          {
            "astId": 2283,
            "contract": "contracts/NFTAuction.sol:NFTAuction",
            "label": "whitelistedBuyer",
            "offset": 0,
            "slot": "4",
            "type": "t_address"
          },
          {
            "astId": 2285,
            "contract": "contracts/NFTAuction.sol:NFTAuction",
            "label": "nftRecipient",
            "offset": 0,
            "slot": "5",
            "type": "t_address"
          },
          {
            "astId": 2287,
            "contract": "contracts/NFTAuction.sol:NFTAuction",
            "label": "ERC20Token",
            "offset": 0,
            "slot": "6",
            "type": "t_address"
          },
          {
            "astId": 2290,
            "contract": "contracts/NFTAuction.sol:NFTAuction",
            "label": "feeRecipients",
            "offset": 0,
            "slot": "7",
            "type": "t_array(t_address)dyn_storage"
          },
          {
            "astId": 2293,
            "contract": "contracts/NFTAuction.sol:NFTAuction",
            "label": "feePercentages",
            "offset": 0,
            "slot": "8",
            "type": "t_array(t_uint32)dyn_storage"
          }
        ],
        "numberOfBytes": "288"
      },
      "t_uint128": {
        "encoding": "inplace",
        "label": "uint128",
        "numberOfBytes": "16"
      },
      "t_uint256": {
        "encoding": "inplace",
        "label": "uint256",
        "numberOfBytes": "32"
      },
      "t_uint32": {
        "encoding": "inplace",
        "label": "uint32",
        "numberOfBytes": "4"
      },
      "t_uint64": {
        "encoding": "inplace",
        "label": "uint64",
        "numberOfBytes": "8"
      }
    }
  }
}