{
  "address": "0xe03A1174d3cabebf4D7F3e53d83D64cE9295B13e",
  "abi": [
    {
      "inputs": [],
      "stateMutability": "nonpayable",
      "type": "constructor"
    },
    {
      "anonymous": false,
      "inputs": [
        {
          "indexed": false,
          "internalType": "address",
          "name": "nftContractAddress",
          "type": "address"
        },
        {
          "indexed": false,
          "internalType": "uint256",
          "name": "tokenId",
          "type": "uint256"
        },
        {
          "indexed": false,
          "internalType": "uint256",
          "name": "auctionEndPeriod",
          "type": "uint256"
        }
      ],
      "name": "AuctionPeriodUpdated",
      "type": "event"
    },
    {
      "anonymous": false,
      "inputs": [
        {
          "indexed": false,
          "internalType": "address",
          "name": "nftContractAddress",
          "type": "address"
        },
        {
          "indexed": false,
          "internalType": "uint256",
          "name": "tokenId",
          "type": "uint256"
        },
        {
          "indexed": false,
          "internalType": "address",
          "name": "auctionSettler",
          "type": "address"
        }
      ],
      "name": "AuctionSettled",
      "type": "event"
    },
    {
      "anonymous": false,
      "inputs": [
        {
          "indexed": false,
          "internalType": "address",
          "name": "nftContractAddress",
          "type": "address"
        },
        {
          "indexed": false,
          "internalType": "uint256",
          "name": "masterTokenId",
          "type": "uint256"
        },
        {
          "indexed": false,
          "internalType": "uint256[]",
          "name": "batchTokens",
          "type": "uint256[]"
        },
        {
          "indexed": false,
          "internalType": "address",
          "name": "nftSeller",
          "type": "address"
        },
        {
          "indexed": false,
          "internalType": "address",
          "name": "erc20Token",
          "type": "address"
        },
        {
          "indexed": false,
          "internalType": "uint256",
          "name": "buyNowPrice",
          "type": "uint256"
        },
        {
          "indexed": false,
          "internalType": "address",
          "name": "whitelistedBuyer",
          "type": "address"
        },
        {
          "indexed": false,
          "internalType": "address[]",
          "name": "feeRecipients",
          "type": "address[]"
        },
        {
          "indexed": false,
          "internalType": "uint32[]",
          "name": "feePercentages",
          "type": "uint32[]"
        }
      ],
      "name": "BatchSaleCreated",
      "type": "event"
    },
    {
      "anonymous": false,
      "inputs": [
        {
          "indexed": false,
          "internalType": "address",
          "name": "nftContractAddress",
          "type": "address"
        },
        {
          "indexed": false,
          "internalType": "uint256",
          "name": "tokenId",
          "type": "uint256"
        },
        {
          "indexed": false,
          "internalType": "address",
          "name": "bidder",
          "type": "address"
        },
        {
          "indexed": false,
          "internalType": "uint256",
          "name": "ethAmount",
          "type": "uint256"
        },
        {
          "indexed": false,
          "internalType": "address",
          "name": "erc20Token",
          "type": "address"
        },
        {
          "indexed": false,
          "internalType": "uint256",
          "name": "tokenAmount",
          "type": "uint256"
        }
      ],
      "name": "BidMade",
      "type": "event"
    },
    {
      "anonymous": false,
      "inputs": [
        {
          "indexed": false,
          "internalType": "address",
          "name": "nftContractAddress",
          "type": "address"
        },
        {
          "indexed": false,
          "internalType": "uint256",
          "name": "tokenId",
          "type": "uint256"
        },
        {
          "indexed": false,
          "internalType": "address",
          "name": "highestBidder",
          "type": "address"
        }
      ],
      "name": "BidWithdrawn",
      "type": "event"
    },
    {
      "anonymous": false,
      "inputs": [
        {
          "indexed": false,
          "internalType": "address",
          "name": "nftContractAddress",
          "type": "address"
        },
        {
          "indexed": false,
          "internalType": "uint256",
          "name": "tokenId",
          "type": "uint256"
        },
        {
          "indexed": false,
          "internalType": "uint256",
          "name": "newBuyNowPrice",
          "type": "uint256"
        }
      ],
      "name": "BuyNowPriceUpdated",
      "type": "event"
    },
    {
      "anonymous": false,
      "inputs": [
        {
          "indexed": false,
          "internalType": "address",
          "name": "nftContractAddress",
          "type": "address"
        },
        {
          "indexed": false,
          "internalType": "uint256",
          "name": "tokenId",
          "type": "uint256"
        }
      ],
      "name": "HighestBidTaken",
      "type": "event"
    },
    {
      "anonymous": false,
      "inputs": [
        {
          "indexed": false,
          "internalType": "address",
          "name": "nftContractAddress",
          "type": "address"
        },
        {
          "indexed": false,
          "internalType": "uint256",
          "name": "tokenId",
          "type": "uint256"
        },
        {
          "indexed": false,
          "internalType": "uint256",
          "name": "newMinPrice",
          "type": "uint256"
        }
      ],
      "name": "MinimumPriceUpdated",
      "type": "event"
    },
    {
      "anonymous": false,
      "inputs": [
        {
          "indexed": false,
          "internalType": "address",
          "name": "nftContractAddress",
          "type": "address"
        },
        {
          "indexed": false,
          "internalType": "uint256",
          "name": "tokenId",
          "type": "uint256"
        },
        {
          "indexed": false,
          "internalType": "address",
          "name": "nftSeller",
          "type": "address"
        },
        {
          "indexed": false,
          "internalType": "uint256",
          "name": "nftHighestBid",
          "type": "uint256"
        },
        {
          "indexed": false,
          "internalType": "address",
          "name": "nftHighestBidder",
          "type": "address"
        },
        {
          "indexed": false,
          "internalType": "address",
          "name": "nftRecipient",
          "type": "address"
        }
      ],
      "name": "NFTTransferredAndSellerPaid",
      "type": "event"
    },
    {
      "anonymous": false,
      "inputs": [
        {
          "indexed": false,
          "internalType": "address",
          "name": "nftContractAddress",
          "type": "address"
        },
        {
          "indexed": false,
          "internalType": "uint256",
          "name": "tokenId",
          "type": "uint256"
        },
        {
          "indexed": false,
          "internalType": "address",
          "name": "nftSeller",
          "type": "address"
        }
      ],
      "name": "NFTWithdrawn",
      "type": "event"
    },
    {
      "anonymous": false,
      "inputs": [
        {
          "indexed": false,
          "internalType": "address",
          "name": "nftContractAddress",
          "type": "address"
        },
        {
          "indexed": false,
          "internalType": "uint256",
          "name": "tokenId",
          "type": "uint256"
        },
        {
          "indexed": false,
          "internalType": "address",
          "name": "nftSeller",
          "type": "address"
        },
        {
          "indexed": false,
          "internalType": "address",
          "name": "erc20Token",
          "type": "address"
        },
        {
          "indexed": false,
          "internalType": "uint256",
          "name": "minPrice",
          "type": "uint256"
        },
        {
          "indexed": false,
          "internalType": "uint256",
          "name": "buyNowPrice",
          "type": "uint256"
        },
        {
          "indexed": false,
          "internalType": "uint256",
          "name": "auctionBidPeriod",
          "type": "uint256"
        },
        {
          "indexed": false,
          "internalType": "uint256",
          "name": "bidIncreasePercentage",
          "type": "uint256"
        },
        {
          "indexed": false,
          "internalType": "address[]",
          "name": "feeRecipients",
          "type": "address[]"
        },
        {
          "indexed": false,
          "internalType": "uint32[]",
          "name": "feePercentages",
          "type": "uint32[]"
        }
      ],
      "name": "NftAuctionCreated",
      "type": "event"
    },
    {
      "anonymous": false,
      "inputs": [
        {
          "indexed": false,
          "internalType": "address",
          "name": "nftContractAddress",
          "type": "address"
        },
        {
          "indexed": false,
          "internalType": "uint256",
          "name": "masterTokenId",
          "type": "uint256"
        },
        {
          "indexed": false,
          "internalType": "uint256[]",
          "name": "batchTokens",
          "type": "uint256[]"
        },
        {
          "indexed": false,
          "internalType": "address",
          "name": "nftSeller",
          "type": "address"
        },
        {
          "indexed": false,
          "internalType": "address",
          "name": "erc20Token",
          "type": "address"
        },
        {
          "indexed": false,
          "internalType": "uint256",
          "name": "minPrice",
          "type": "uint256"
        },
        {
          "indexed": false,
          "internalType": "uint256",
          "name": "buyNowPrice",
          "type": "uint256"
        },
        {
          "indexed": false,
          "internalType": "uint256",
          "name": "auctionBidPeriod",
          "type": "uint256"
        },
        {
          "indexed": false,
          "internalType": "uint256",
          "name": "bidIncreasePercentage",
          "type": "uint256"
        },
        {
          "indexed": false,
          "internalType": "address[]",
          "name": "feeRecipients",
          "type": "address[]"
        },
        {
          "indexed": false,
          "internalType": "uint32[]",
          "name": "feePercentages",
          "type": "uint32[]"
        }
      ],
      "name": "NftBatchAuctionCreated",
      "type": "event"
    },
    {
      "anonymous": false,
      "inputs": [
        {
          "indexed": false,
          "internalType": "address",
          "name": "nftContractAddress",
          "type": "address"
        },
        {
          "indexed": false,
          "internalType": "uint256",
          "name": "tokenId",
          "type": "uint256"
        },
        {
          "indexed": false,
          "internalType": "address",
          "name": "nftSeller",
          "type": "address"
        },
        {
          "indexed": false,
          "internalType": "address",
          "name": "erc20Token",
          "type": "address"
        },
        {
          "indexed": false,
          "internalType": "uint256",
          "name": "buyNowPrice",
          "type": "uint256"
        },
        {
          "indexed": false,
          "internalType": "address",
          "name": "whitelistedBuyer",
          "type": "address"
        },
        {
          "indexed": false,
          "internalType": "address[]",
          "name": "feeRecipients",
          "type": "address[]"
        },
        {
          "indexed": false,
          "internalType": "uint32[]",
          "name": "feePercentages",
          "type": "uint32[]"
        }
      ],
      "name": "SaleCreated",
      "type": "event"
    },
    {
      "anonymous": false,
      "inputs": [
        {
          "indexed": false,
          "internalType": "address",
          "name": "nftContractAddress",
          "type": "address"
        },
        {
          "indexed": false,
          "internalType": "uint256",
          "name": "tokenId",
          "type": "uint256"
        },
        {
          "indexed": false,
          "internalType": "address",
          "name": "newWhitelistedBuyer",
          "type": "address"
        }
      ],
      "name": "WhitelistedBuyerUpdated",
      "type": "event"
    },
    {
      "inputs": [
        {
          "internalType": "address",
          "name": "_nftContractAddress",
          "type": "address"
        },
        {
          "internalType": "uint256[]",
          "name": "_batchTokenIds",
          "type": "uint256[]"
        },
        {
          "internalType": "address",
          "name": "_erc20Token",
          "type": "address"
        },
        {
          "internalType": "uint256",
          "name": "_minPrice",
          "type": "uint256"
        },
        {
          "internalType": "uint256",
          "name": "_buyNowPrice",
          "type": "uint256"
        },
        {
          "internalType": "uint256",
          "name": "_auctionBidPeriod",
          "type": "uint256"
        },
        {
          "internalType": "uint256",
          "name": "_bidIncreasePercentage",
          "type": "uint256"
        },
        {
          "internalType": "address[]",
          "name": "_feeRecipients",
          "type": "address[]"
        },
        {
          "internalType": "uint32[]",
          "name": "_feePercentages",
          "type": "uint32[]"
        }
      ],
      "name": "createBatchNftAuction",
      "outputs": [],
      "stateMutability": "nonpayable",
      "type": "function"
    },
    {
      "inputs": [
        {
          "internalType": "address",
          "name": "_nftContractAddress",
          "type": "address"
        },
        {
          "internalType": "uint256[]",
          "name": "_batchTokenIds",
          "type": "uint256[]"
        },
        {
          "internalType": "address",
          "name": "_erc20Token",
          "type": "address"
        },
        {
          "internalType": "uint256",
          "name": "_buyNowPrice",
          "type": "uint256"
        },
        {
          "internalType": "address",
          "name": "_whitelistedBuyer",
          "type": "address"
        },
        {
          "internalType": "address[]",
          "name": "_feeRecipients",
          "type": "address[]"
        },
        {
          "internalType": "uint32[]",
          "name": "_feePercentages",
          "type": "uint32[]"
        }
      ],
      "name": "createBatchSale",
      "outputs": [],
      "stateMutability": "nonpayable",
      "type": "function"
    },
    {
      "inputs": [
        {
          "internalType": "address",
          "name": "_nftContractAddress",
          "type": "address"
        },
        {
          "internalType": "uint256[]",
          "name": "_batchTokenIds",
          "type": "uint256[]"
        },
        {
          "internalType": "address",
          "name": "_erc20Token",
          "type": "address"
        },
        {
          "internalType": "uint256",
          "name": "_minPrice",
          "type": "uint256"
        },
        {
          "internalType": "uint256",
          "name": "_buyNowPrice",
          "type": "uint256"
        },
        {
          "internalType": "address[]",
          "name": "_feeRecipients",
          "type": "address[]"
        },
        {
          "internalType": "uint32[]",
          "name": "_feePercentages",
          "type": "uint32[]"
        }
      ],
      "name": "createDefaultBatchNftAuction",
      "outputs": [],
      "stateMutability": "nonpayable",
      "type": "function"
    },
    {
      "inputs": [
        {
          "internalType": "address",
          "name": "_nftContractAddress",
          "type": "address"
        },
        {
          "internalType": "uint256",
          "name": "_tokenId",
          "type": "uint256"
        },
        {
          "internalType": "address",
          "name": "_erc20Token",
          "type": "address"
        },
        {
          "internalType": "uint256",
          "name": "_minPrice",
          "type": "uint256"
        },
        {
          "internalType": "uint256",
          "name": "_buyNowPrice",
          "type": "uint256"
        },
        {
          "internalType": "address[]",
          "name": "_feeRecipients",
          "type": "address[]"
        },
        {
          "internalType": "uint32[]",
          "name": "_feePercentages",
          "type": "uint32[]"
        }
      ],
      "name": "createDefaultNftAuction",
      "outputs": [],
      "stateMutability": "nonpayable",
      "type": "function"
    },
    {
      "inputs": [
        {
          "internalType": "address",
          "name": "_nftContractAddress",
          "type": "address"
        },
        {
          "internalType": "uint256",
          "name": "_tokenId",
          "type": "uint256"
        },
        {
          "internalType": "address",
          "name": "_erc20Token",
          "type": "address"
        },
        {
          "internalType": "uint256",
          "name": "_minPrice",
          "type": "uint256"
        },
        {
          "internalType": "uint256",
          "name": "_buyNowPrice",
          "type": "uint256"
        },
        {
          "internalType": "uint256",
          "name": "_auctionBidPeriod",
          "type": "uint256"
        },
        {
          "internalType": "uint256",
          "name": "_bidIncreasePercentage",
          "type": "uint256"
        },
        {
          "internalType": "address[]",
          "name": "_feeRecipients",
          "type": "address[]"
        },
        {
          "internalType": "uint32[]",
          "name": "_feePercentages",
          "type": "uint32[]"
        }
      ],
      "name": "createNewNftAuction",
      "outputs": [],
      "stateMutability": "nonpayable",
      "type": "function"
    },
    {
      "inputs": [
        {
          "internalType": "address",
          "name": "_nftContractAddress",
          "type": "address"
        },
        {
          "internalType": "uint256",
          "name": "_tokenId",
          "type": "uint256"
        },
        {
          "internalType": "address",
          "name": "_erc20Token",
          "type": "address"
        },
        {
          "internalType": "uint256",
          "name": "_buyNowPrice",
          "type": "uint256"
        },
        {
          "internalType": "address",
          "name": "_whitelistedBuyer",
          "type": "address"
        },
        {
          "internalType": "address[]",
          "name": "_feeRecipients",
          "type": "address[]"
        },
        {
          "internalType": "uint32[]",
          "name": "_feePercentages",
          "type": "uint32[]"
        }
      ],
      "name": "createSale",
      "outputs": [],
      "stateMutability": "nonpayable",
      "type": "function"
    },
    {
      "inputs": [],
      "name": "defaultAuctionBidPeriod",
      "outputs": [
        {
          "internalType": "uint256",
          "name": "",
          "type": "uint256"
        }
      ],
      "stateMutability": "view",
      "type": "function"
    },
    {
      "inputs": [],
      "name": "defaultBidIncreasePercentage",
      "outputs": [
        {
          "internalType": "uint256",
          "name": "",
          "type": "uint256"
        }
      ],
      "stateMutability": "view",
      "type": "function"
    },
    {
      "inputs": [
        {
          "internalType": "address",
          "name": "_nftContractAddress",
          "type": "address"
        },
        {
          "internalType": "uint256",
          "name": "_tokenId",
          "type": "uint256"
        },
        {
          "internalType": "address",
          "name": "_erc20Token",
          "type": "address"
        },
        {
          "internalType": "uint256",
          "name": "_tokenAmount",
          "type": "uint256"
        }
      ],
      "name": "makeBid",
      "outputs": [],
      "stateMutability": "payable",
      "type": "function"
    },
    {
      "inputs": [
        {
          "internalType": "address",
          "name": "_nftContractAddress",
          "type": "address"
        },
        {
          "internalType": "uint256",
          "name": "_tokenId",
          "type": "uint256"
        },
        {
          "internalType": "address",
          "name": "_erc20Token",
          "type": "address"
        },
        {
          "internalType": "uint256",
          "name": "_tokenAmount",
          "type": "uint256"
        },
        {
          "internalType": "address",
          "name": "_nftRecipient",
          "type": "address"
        }
      ],
      "name": "makeCustomBid",
      "outputs": [],
      "stateMutability": "payable",
      "type": "function"
    },
    {
      "inputs": [],
      "name": "maximumMinPricePercentage",
      "outputs": [
        {
          "internalType": "uint256",
          "name": "",
          "type": "uint256"
        }
      ],
      "stateMutability": "view",
      "type": "function"
    },
    {
      "inputs": [],
      "name": "minimumSettableIncreasePercentage",
      "outputs": [
        {
          "internalType": "uint256",
          "name": "",
          "type": "uint256"
        }
      ],
      "stateMutability": "view",
      "type": "function"
    },
    {
      "inputs": [
        {
          "internalType": "address",
          "name": "",
          "type": "address"
        },
        {
          "internalType": "uint256",
          "name": "",
          "type": "uint256"
        }
      ],
      "name": "nftContractAuctions",
      "outputs": [
        {
          "internalType": "uint256",
          "name": "minPrice",
          "type": "uint256"
        },
        {
          "internalType": "uint256",
          "name": "buyNowPrice",
          "type": "uint256"
        },
        {
          "internalType": "uint256",
          "name": "auctionBidPeriod",
          "type": "uint256"
        },
        {
          "internalType": "uint256",
          "name": "auctionEnd",
          "type": "uint256"
        },
        {
          "internalType": "uint256",
          "name": "nftHighestBid",
          "type": "uint256"
        },
        {
          "internalType": "uint256",
          "name": "bidIncreasePercentage",
          "type": "uint256"
        },
        {
          "internalType": "address",
          "name": "nftHighestBidder",
          "type": "address"
        },
        {
          "internalType": "address",
          "name": "nftSeller",
          "type": "address"
        },
        {
          "internalType": "address",
          "name": "whitelistedBuyer",
          "type": "address"
        },
        {
          "internalType": "address",
          "name": "nftRecipient",
          "type": "address"
        },
        {
          "internalType": "address",
          "name": "ERC20Token",
          "type": "address"
        }
      ],
      "stateMutability": "view",
      "type": "function"
    },
    {
      "inputs": [
        {
          "internalType": "address",
          "name": "",
          "type": "address"
        },
        {
          "internalType": "uint256",
          "name": "",
          "type": "uint256"
        }
      ],
      "name": "nftOwner",
      "outputs": [
        {
          "internalType": "address",
          "name": "",
          "type": "address"
        }
      ],
      "stateMutability": "view",
      "type": "function"
    },
    {
      "inputs": [
        {
          "internalType": "address",
          "name": "_nftContractAddress",
          "type": "address"
        },
        {
          "internalType": "uint256",
          "name": "_tokenId",
          "type": "uint256"
        }
      ],
      "name": "ownerOfNFT",
      "outputs": [
        {
          "internalType": "address",
          "name": "",
          "type": "address"
        }
      ],
      "stateMutability": "view",
      "type": "function"
    },
    {
      "inputs": [
        {
          "internalType": "address",
          "name": "_nftContractAddress",
          "type": "address"
        },
        {
          "internalType": "uint256",
          "name": "_tokenId",
          "type": "uint256"
        }
      ],
      "name": "settleAuction",
      "outputs": [],
      "stateMutability": "nonpayable",
      "type": "function"
    },
    {
      "inputs": [
        {
          "internalType": "address",
          "name": "_nftContractAddress",
          "type": "address"
        },
        {
          "internalType": "uint256",
          "name": "_tokenId",
          "type": "uint256"
        }
      ],
      "name": "takeHighestBid",
      "outputs": [],
      "stateMutability": "nonpayable",
      "type": "function"
    },
    {
      "inputs": [
        {
          "internalType": "address",
          "name": "_nftContractAddress",
          "type": "address"
        },
        {
          "internalType": "uint256",
          "name": "_tokenId",
          "type": "uint256"
        },
        {
          "internalType": "uint256",
          "name": "_newBuyNowPrice",
          "type": "uint256"
        }
      ],
      "name": "updateBuyNowPrice",
      "outputs": [],
      "stateMutability": "nonpayable",
      "type": "function"
    },
    {
      "inputs": [
        {
          "internalType": "address",
          "name": "_nftContractAddress",
          "type": "address"
        },
        {
          "internalType": "uint256",
          "name": "_tokenId",
          "type": "uint256"
        },
        {
          "internalType": "uint256",
          "name": "_newMinPrice",
          "type": "uint256"
        }
      ],
      "name": "updateMinimumPrice",
      "outputs": [],
      "stateMutability": "nonpayable",
      "type": "function"
    },
    {
      "inputs": [
        {
          "internalType": "address",
          "name": "_nftContractAddress",
          "type": "address"
        },
        {
          "internalType": "uint256",
          "name": "_tokenId",
          "type": "uint256"
        },
        {
          "internalType": "address",
          "name": "_newWhitelistedBuyer",
          "type": "address"
        }
      ],
      "name": "updateWhitelistedBuyer",
      "outputs": [],
      "stateMutability": "nonpayable",
      "type": "function"
    },
    {
      "inputs": [],
      "name": "withdrawAllFailedCredits",
      "outputs": [],
      "stateMutability": "nonpayable",
      "type": "function"
    },
    {
      "inputs": [
        {
          "internalType": "address",
          "name": "_nftContractAddress",
          "type": "address"
        },
        {
          "internalType": "uint256",
          "name": "_tokenId",
          "type": "uint256"
        }
      ],
      "name": "withdrawBid",
      "outputs": [],
      "stateMutability": "nonpayable",
      "type": "function"
    },
    {
      "inputs": [
        {
          "internalType": "address",
          "name": "_nftContractAddress",
          "type": "address"
        },
        {
          "internalType": "uint256",
          "name": "_tokenId",
          "type": "uint256"
        }
      ],
      "name": "withdrawNft",
      "outputs": [],
      "stateMutability": "nonpayable",
      "type": "function"
    }
  ],
  "transactionHash": "0x74492689365130d322fdfaf26bbc851094f0a6cef4240aeafccf3bce61ff417b",
  "args": [],
  "solcInputHash": "45acfcbcb07c5b8d61823fd2c35cab21",
  "bytecode": "0x608060405234801561001057600080fd5b506103e8600355620151806004556101f4600555611f40600655613bef806100396000396000f3fe6080604052600436106101405760003560e01c80637d8fd75e116100b6578063c54e479f1161006f578063c54e479f14610452578063cd4eda1c14610472578063d8fc651914610488578063e1d544c9146104a8578063e45c9e79146104c8578063f04e7616146104db57600080fd5b80637d8fd75e14610393578063848e5c77146103a65780639c0b9966146103c6578063a676863d146103dc578063b603c7d0146103fc578063b6ad69141461043d57600080fd5b8063412d1bac11610108578063412d1bac146102d35780634cb8ef5b146102f35780635138b08c14610313578063572a3805146103335780635b0a1aa5146103535780637a8a48aa1461037357600080fd5b8063041fa0b814610145578063076b73ac1461023f578063186779d51461026157806320950fc6146102855780633d87d5fb146102bd575b600080fd5b34801561015157600080fd5b506101d26101603660046132bb565b6000602081815292815260408082209093529081522080546001820154600283015460038401546004850154600586015460088701546009880154600a890154600b8a0154600c909a01549899979896979596949593946001600160a01b03938416949284169391821692821691168b565b604080519b8c5260208c019a909a52988a01979097526060890195909552608088019390935260a08701919091526001600160a01b0390811660c087015290811660e086015290811661010085015290811661012084015216610140820152610160015b60405180910390f35b34801561024b57600080fd5b5061025f61025a3660046132e4565b6104fb565b005b34801561026d57600080fd5b5061027760045481565b604051908152602001610236565b34801561029157600080fd5b506102a56102a03660046132bb565b610656565b6040516001600160a01b039091168152602001610236565b3480156102c957600080fd5b5061027760055481565b3480156102df57600080fd5b5061025f6102ee3660046131ee565b6106fd565b3480156102ff57600080fd5b5061025f61030e3660046132bb565b61084a565b34801561031f57600080fd5b5061025f61032e3660046132bb565b61095f565b34801561033f57600080fd5b5061025f61034e3660046133b8565b610a03565b34801561035f57600080fd5b5061025f61036e366004613421565b610aed565b34801561037f57600080fd5b5061025f61038e3660046130b2565b610b1d565b61025f6103a1366004613362565b610c28565b3480156103b257600080fd5b5061025f6103c13660046132bb565b610d76565b3480156103d257600080fd5b5061027760035481565b3480156103e857600080fd5b5061025f6103f7366004613483565b610e6f565b34801561040857600080fd5b506102a56104173660046132bb565b60016020908152600092835260408084209091529082529020546001600160a01b031681565b34801561044957600080fd5b5061025f610efd565b34801561045e57600080fd5b5061025f61046d3660046134f7565b610ff0565b34801561047e57600080fd5b5061027760065481565b34801561049457600080fd5b5061025f6104a33660046132bb565b61112f565b3480156104b457600080fd5b5061025f6104c33660046134f7565b611441565b61025f6104d636600461331f565b611601565b3480156104e757600080fd5b5061025f6104f6366004613172565b6116b2565b6001600160a01b038381166000908152602081815260408083208684529091529020600901548491849116331461054d5760405162461bcd60e51b815260040161054490613836565b60405180910390fd5b610557858561171c565b6105905760405162461bcd60e51b815260206004820152600a6024820152694e6f7420612073616c6560b01b6044820152606401610544565b6001600160a01b038581166000908152602081815260408083208884529091529020600a810180546001600160a01b031916868416179055600881015460049091015491169080158015906105f75750846001600160a01b0316826001600160a01b031614155b15610612576106068787611775565b610612878784846117c2565b7f7502912f483c1fb3f89bf8664bea10db517c2093040d379e78e169e06752364687878760405161064593929190613614565b60405180910390a150505050505050565b6001600160a01b03808316600090815260208181526040808320858452909152812060090154909116801561068c5790506106f7565b6001600160a01b03808516600090815260016020908152604080832087845290915290205416806106f35760405162461bcd60e51b8152602060048201526011602482015270139195081b9bdd0819195c1bdcda5d1959607a1b6044820152606401610544565b9150505b92915050565b856000811161071e5760405162461bcd60e51b8152600401610544906138fe565b8851600181118015610731575060648111155b61074d5760405162461bcd60e51b815260040161054490613a33565b846005548110156107705760405162461bcd60e51b815260040161054490613972565b6001600160a01b038c1660009081526020819052604081208c518992908e9082906107ab57634e487b7160e01b600052603260045260246000fd5b6020026020010151815260200190815260200160002060020181905550856000808e6001600160a01b03166001600160a01b0316815260200190815260200160002060008d60008151811061081057634e487b7160e01b600052603260045260246000fd5b602002602001015181526020019081526020016000206005018190555061083c8c8c8c8c8c8a8a611919565b505050505050505050505050565b81816108568282611a31565b156108735760405162461bcd60e51b8152600401610544906138c9565b6001600160a01b03808516600090815260208181526040808320878452909152902060080154163381146108e15760405162461bcd60e51b815260206004820152601560248201527443616e6e6f742077697468647261772066756e647360581b6044820152606401610544565b6001600160a01b0385166000908152602081815260408083208784529091529020600401546109108686611775565b61091c868684846117c2565b7f10d9bddf66f639dd3c5a6ad2db5ae3102c2b468dfb90a4b0da219435f24a970d86863360405161094f93929190613614565b60405180910390a1505050505050565b818161096b8282611a8d565b156109b85760405162461bcd60e51b815260206004820152601760248201527f41756374696f6e206973206e6f7420796574206f7665720000000000000000006044820152606401610544565b6109c28484611ac3565b7fe6b94748c5d6e0d188a0fcb9b7f2973b01fc0095627f1ec5accdcd9d2e65ca368484336040516109f593929190613614565b60405180910390a150505050565b8360008111610a245760405162461bcd60e51b8152600401610544906138fe565b610a2e8888611db9565b610a3d88888888888888611e17565b7fb80cdee6b1354abc70b544c94895037fab347eead2f10446536215f477cc546d8888338989898989604051610a7a989796959493929190613637565b60405180910390a16001600160a01b0388166000908152602081815260408083208a845290915290206004015415610ae357610ab68888611ffa565b15610ad957610ac58888612044565b15610ad457610ad48888611ac3565b610ae3565b610ae388886120a4565b5050505050505050565b8360008111610b0e5760405162461bcd60e51b8152600401610544906138fe565b610ae3888888888888886120f0565b8360008111610b3e5760405162461bcd60e51b8152600401610544906138fe565b8651600181118015610b51575060648111155b610b6d5760405162461bcd60e51b815260040161054490613a33565b610b778989612177565b610bae8989600081518110610b9c57634e487b7160e01b600052603260045260246000fd5b60200260200101518989898989611e17565b7f4c30da7605b8b28330e91881ffc20f5b3f236e5f0ecba8dd8e0fc6c92bdbdaab8989600081518110610bf157634e487b7160e01b600052603260045260246000fd5b60200260200101518a338b8b8b8b8b604051610c159998979695949392919061371e565b60405180910390a1505050505050505050565b8484610c348282611a8d565b610c745760405162461bcd60e51b8152602060048201526011602482015270105d58dd1a5bdb881a185cc8195b991959607a1b6044820152606401610544565b826001600160a01b038116610ccb5760405162461bcd60e51b815260206004820152601860248201527f63616e6e6f7420737065636966792030206164647265737300000000000000006044820152606401610544565b8787610cd7828261233d565b1580610d0857506001600160a01b038281166000908152602081815260408083208584529091529020600a01541633145b610d245760405162461bcd60e51b81526004016105449061387b565b6001600160a01b038a81166000908152602081815260408083208d84529091529020600b0180546001600160a01b031916918816919091179055610d6a8a8a8a8a612368565b50505050505050505050565b6001600160a01b0382811660009081526020818152604080832085845290915290206009015483918391163314610dbf5760405162461bcd60e51b815260040161054490613836565b6001600160a01b038416600090815260208181526040808320868452909152902060040154610e265760405162461bcd60e51b815260206004820152601360248201527218d85b9b9bdd081c185e5bdd5d080c08189a59606a1b6044820152606401610544565b610e308484611ac3565b604080516001600160a01b0386168152602081018590527f711f4eae05533b90c24ff0ae762d6e9e1ef1b2c85d4c484a2913c5201bcbb7c991016109f5565b8560008111610e905760405162461bcd60e51b8152600401610544906138fe565b83600554811015610eb35760405162461bcd60e51b815260040161054490613972565b6001600160a01b038b166000908152602081815260408083208d8452909152902060028101879055600501859055610ef08b8b8b8b8b89896120f0565b5050505050505050505050565b3360009081526002602052604090205480610f535760405162461bcd60e51b81526020600482015260166024820152756e6f206372656469747320746f20776974686472617760501b6044820152606401610544565b336000818152600260205260408082208290555190919083908381818185875af1925050503d8060008114610fa4576040519150601f19603f3d011682016040523d82523d6000602084013e610fa9565b606091505b5050905080610fec5760405162461bcd60e51b815260206004820152600f60248201526e1dda5d1a191c985dc819985a5b1959608a1b6044820152606401610544565b5050565b6001600160a01b03838116600090815260208181526040808320868452909152902060090154849184911633146110395760405162461bcd60e51b815260040161054490613836565b826000811161105a5760405162461bcd60e51b8152600401610544906138fe565b6001600160a01b038616600090815260208181526040808320888452909152902054849081158061109657508061109383600654612552565b10155b6110b25760405162461bcd60e51b8152600401610544906139e9565b6001600160a01b0388166000818152602081815260408083208b84528252918290206001018990558151928352820189905281018790527f4f15fa313cb566165a50ebd19ae85a46e69e5f6b5a9269bd90cde606bf90cd619060600160405180910390a16111208888612044565b15610ae357610ae38888611ac3565b818161113b8282611a31565b156111585760405162461bcd60e51b8152600401610544906138c9565b6001600160a01b03848116600090815260208181526040808320878452909152902060090154859185911633146111a15760405162461bcd60e51b815260040161054490613836565b6001600160a01b03861660009081526020818152604080832088845282528083206006018054825181850281018501909352808352919290919083018282801561120a57602002820191906000526020600020905b8154815260200190600101908083116111f6575b50508351939450508215915061137190505760005b8181101561136b576001600160a01b03808a166000818152602081815260408083208d8452909152902060090154855191926323b872dd9230929091169087908690811061127d57634e487b7160e01b600052603260045260246000fd5b60200260200101516040518463ffffffff1660e01b81526004016112a3939291906135f0565b600060405180830381600087803b1580156112bd57600080fd5b505af11580156112d1573d6000803e3d6000fd5b505050506000600160008b6001600160a01b03166001600160a01b03168152602001908152602001600020600085848151811061131e57634e487b7160e01b600052603260045260246000fd5b6020026020010151815260200190815260200160002060006101000a8154816001600160a01b0302191690836001600160a01b03160217905550808061136390613b72565b91505061121f565b506113f2565b6001600160a01b038089166000818152602081815260408083208c8452909152908190206009015490516323b872dd60e01b815291926323b872dd926113bf92309216908c906004016135f0565b600060405180830381600087803b1580156113d957600080fd5b505af11580156113ed573d6000803e3d6000fd5b505050505b6113fc888861256b565b7fc9e322753b88ef200a699612ee80267ec1889ce31dd470742469de7a75c3498288883360405161142f93929190613614565b60405180910390a15050505050505050565b6001600160a01b038381166000908152602081815260408083208684529091529020600901548491849116331461148a5760405162461bcd60e51b815260040161054490613836565b84846114968282611a31565b156114b35760405162461bcd60e51b8152600401610544906138c9565b86866114bf828261171c565b1561150c5760405162461bcd60e51b815260206004820152601960248201527f4e6f74206170706c696361626c6520666f7220612073616c65000000000000006044820152606401610544565b866000811161152d5760405162461bcd60e51b8152600401610544906138fe565b6001600160a01b038a166000908152602081815260408083208c84529091529020600101548881158061156b57508061156883600654612552565b10155b6115875760405162461bcd60e51b8152600401610544906139e9565b6001600160a01b038c166000818152602081815260408083208f84528252918290208d9055815192835282018d905281018b90527fdcf27af4c564afa0c536dd1fa48e5fef0d9833378a1bddacc95922b902ebfc329060600160405180910390a16115f28c8c611a31565b1561083c5761083c8c8c61260e565b838361160d8282611a8d565b61164d5760405162461bcd60e51b8152602060048201526011602482015270105d58dd1a5bdb881a185cc8195b991959607a1b6044820152606401610544565b8585611659828261233d565b158061168a57506001600160a01b038281166000908152602081815260408083208584529091529020600a01541633145b6116a65760405162461bcd60e51b81526004016105449061387b565b610ae388888888612368565b83600081116116d35760405162461bcd60e51b8152600401610544906138fe565b86516001811180156116e6575060648111155b6117025760405162461bcd60e51b815260040161054490613a33565b61171189898989898989611919565b505050505050505050565b6001600160a01b0382166000908152602081815260408083208484529091528120600101541580159061176e57506001600160a01b038316600090815260208181526040808320858452909152902054155b9392505050565b6001600160a01b03919091166000908152602081815260408083209383529290529081206008810180546001600160a01b03199081169091556004820192909255600b0180549091169055565b6001600160a01b038481166000908152602081815260408083208784529091529020600c01541680156118775760405163a9059cbb60e01b81526001600160a01b0384811660048301526024820184905282169063a9059cbb90604401602060405180830381600087803b15801561183957600080fd5b505af115801561184d573d6000803e3d6000fd5b505050506040513d601f19601f820116820180604052508101906118719190613529565b50611912565b6000836001600160a01b03168360405160006040518083038185875af1925050503d80600081146118c4576040519150601f19603f3d011682016040523d82523d6000602084013e6118c9565b606091505b5050905080611910576001600160a01b0384166000908152600260205260409020546118f6908490613adc565b6001600160a01b0385166000908152600260205260409020555b505b5050505050565b6119238787612177565b61195a878760008151811061194857634e487b7160e01b600052603260045260246000fd5b6020026020010151878787878761268c565b600061198e888860008151811061198157634e487b7160e01b600052603260045260246000fd5b60200260200101516128ba565b905060006119c489896000815181106119b757634e487b7160e01b600052603260045260246000fd5b60200260200101516128f5565b90507f7793a795e1d5e1fa3d07e71e62be377a8e14feeaf5b9257fe7028653c0f6cd158989600081518110611a0957634e487b7160e01b600052603260045260246000fd5b60200260200101518a338b8b8b89898d8d604051610c159b9a999897969594939291906137a3565b6001600160a01b03821660009081526020818152604080832084845290915281205480158015906106f357506001600160a01b038416600090815260208181526040808320868452909152902060040154811115949350505050565b6001600160a01b0382166000908152602081815260408083208484529091528120600301548015806106f3575042109392505050565b6001600160a01b0382811660009081526020818152604080832085845290915281206009810154600890910154908316921690611b008585612929565b6001600160a01b038616600090815260208181526040808320888452909152902060040154909150611b328686611775565b611b3e86868684612985565b6001600160a01b038616600090815260208181526040808320888452825280832060060180548251818502810185019093528083529192909190830182828015611ba757602002820191906000526020600020905b815481526020019060010190808311611b93575b505083519394505082159150611ce990505760005b81811015611ce357886001600160a01b03166323b872dd3087868581518110611bf557634e487b7160e01b600052603260045260246000fd5b60200260200101516040518463ffffffff1660e01b8152600401611c1b939291906135f0565b600060405180830381600087803b158015611c3557600080fd5b505af1158015611c49573d6000803e3d6000fd5b505050506000600160008b6001600160a01b03166001600160a01b031681526020019081526020016000206000858481518110611c9657634e487b7160e01b600052603260045260246000fd5b6020026020010151815260200190815260200160002060006101000a8154816001600160a01b0302191690836001600160a01b031602179055508080611cdb90613b72565b915050611bbc565b50611d4c565b6040516323b872dd60e01b81526001600160a01b038916906323b872dd90611d1990309088908c906004016135f0565b600060405180830381600087803b158015611d3357600080fd5b505af1158015611d47573d6000803e3d6000fd5b505050505b611d56888861256b565b604080516001600160a01b03808b168252602082018a90528089169282019290925260608101859052818716608082015290851660a08201527f669254f9d4b4af8ede0cec111d473fd4e9c93a1d30b7641198ffe90ef9543f929060c00161142f565b6040516323b872dd60e01b81526001600160a01b038316906323b872dd90611de9903390309086906004016135f0565b600060405180830381600087803b158015611e0357600080fd5b505af1158015611910573d6000803e3d6000fd5b81518151808214611e3a5760405162461bcd60e51b815260040161054490613929565b826000805b8251811015611e8f57828181518110611e6857634e487b7160e01b600052603260045260246000fd5b602002602001015182611e7b9190613af4565b915080611e8781613b72565b915050611e3f565b506127108163ffffffff161115611ee85760405162461bcd60e51b815260206004820152601e60248201527f6665652070657263656e746167657320657863656564206d6178696d756d00006044820152606401610544565b6001600160a01b03891615611f32576001600160a01b038b81166000908152602081815260408083208e84529091529020600c0180546001600160a01b031916918b169190911790555b6001600160a01b038b166000908152602081815260408083208d845282529091208751611f6792600d90920191890190612dd5565b506001600160a01b038b166000908152602081815260408083208d845282529091208651611f9d92600790920191880190612e3a565b505050506001600160a01b039788166000908152602081815260408083209983529890529690962060018101949094555050600a82018054919095166001600160a01b031991821617909455600901805490931633179092555050565b6000612006838361233d565b158061176e57506001600160a01b038084166000908152602081815260408083208684529091529020600a810154600890910154821691161461176e565b6001600160a01b03821660009081526020818152604080832084845290915281206001015480158015906106f357506001600160a01b03841660009081526020818152604080832086845290915290206004015481111591505092915050565b6001600160a01b03828116600090815260208181526040808320858452909152902060088101546004909101549116906120de8484611775565b6120ea848484846117c2565b50505050565b6120fa8787611db9565b6121098787878787878761268c565b7f8f8f8a560fd776fbe3475a69cfae439ce87490ee342fa5974a3c05e6f20c975387873388888861213a8e8e6128ba565b6121448f8f6128f5565b8a8a60405161215c9a999897969594939291906136a5565b60405180910390a161216e8787612ac7565b50505050505050565b60005b815181101561229e57826001600160a01b03166323b872dd33308585815181106121b457634e487b7160e01b600052603260045260246000fd5b60200260200101516040518463ffffffff1660e01b81526004016121da939291906135f0565b600060405180830381600087803b1580156121f457600080fd5b505af1158015612208573d6000803e3d6000fd5b505050508060001461228c576001600160a01b0383166000908152600160205260408120835133929085908590811061225157634e487b7160e01b600052603260045260246000fd5b6020026020010151815260200190815260200160002060006101000a8154816001600160a01b0302191690836001600160a01b031602179055505b8061229681613b72565b91505061217a565b506122d182826000815181106122c457634e487b7160e01b600052603260045260246000fd5b60200260200101516120a4565b6001600160a01b038216600090815260208190526040812082518392908390829061230c57634e487b7160e01b600052603260045260246000fd5b602002602001015181526020019081526020016000206006019080519060200190612338929190612ee4565b505050565b6001600160a01b0391821660009081526020818152604080832093835292905220600a015416151590565b6001600160a01b0384811660009081526020818152604080832087845290915290206009015485918591163314156123e25760405162461bcd60e51b815260206004820152601b60248201527f4f776e65722063616e6e6f7420626964206f6e206f776e204e465400000000006044820152606401610544565b858585856123f284848484612af9565b61245d5760405162461bcd60e51b815260206004820152603660248201527f42696420746f206265206d61646520696e207175616e746974696573206f66206044820152750e6e0cac6d2ccd2cac840e8ded6cadc40dee440cae8d60531b6064820152608401610544565b89898861246b838383612b86565b6124b75760405162461bcd60e51b815260206004820152601e60248201527f4e6f7420656e6f7567682066756e647320746f20626964206f6e204e465400006044820152606401610544565b6124c28d8d8c612c42565b7fdfd4ac8cb43d5458b7a6f74f2d6461d77d4985704bdbc2fd4c4816444bbfd5e08d8d33348f8f604051612531969594939291906001600160a01b039687168152602081019590955292851660408501526060840191909152909216608082015260a081019190915260c00190565b60405180910390a16125438d8d612ac7565b50505050505050505050505050565b60006127106125618385613b3c565b61176e9190613b1c565b6001600160a01b0382166000908152602081815260408083208484529091528120818155600181018290556003810182905560028101829055600581018290556009810180546001600160a01b0319908116909155600a8201805490911690556125da91600690910190612f1f565b6001600160a01b0390911660009081526020818152604080832093835292905220600c0180546001600160a01b0319169055565b4261261983836128ba565b6126239190613adc565b6001600160a01b038316600081815260208181526040808320868452825291829020600301849055815192835282018490528101919091527f86dfe42cdd55a98787dad0c1abd84accf1ff905d6d6aa754eb8f9033c3cd9e429060600160405180910390a15050565b82848115806126a65750806126a383600654612552565b10155b6126c25760405162461bcd60e51b8152600401610544906139e9565b835183518082146126e55760405162461bcd60e51b815260040161054490613929565b846000805b825181101561273a5782818151811061271357634e487b7160e01b600052603260045260246000fd5b6020026020010151826127269190613af4565b91508061273281613b72565b9150506126ea565b506127108163ffffffff1611156127935760405162461bcd60e51b815260206004820152601e60248201527f6665652070657263656e746167657320657863656564206d6178696d756d00006044820152606401610544565b6001600160a01b038b1615612800578a6000808f6001600160a01b03166001600160a01b0316815260200190815260200160002060008e8152602001908152602001600020600c0160006101000a8154816001600160a01b0302191690836001600160a01b031602179055505b6001600160a01b038d166000908152602081815260408083208f84528252909120895161283592600d909201918b0190612dd5565b506001600160a01b038d166000908152602081815260408083208f84528252909120885161286b926007909201918a0190612e3a565b505050506001600160a01b03999099166000908152602081815260408083209a835299905297909720600181019490945550505090815560090180546001600160a01b03191633179055505050565b6001600160a01b038216600090815260208181526040808320848452909152812060020154806128ee5750506004546106f7565b90506106f7565b6001600160a01b038216600090815260208181526040808320848452909152812060050154806128ee5750506003546106f7565b6001600160a01b038083166000908152602081815260408083208584529091528120600b0154909116806128ee5750506001600160a01b03808316600090815260208181526040808320858452909152902060080154166106f7565b6000805b6001600160a01b0386166000908152602081815260408083208884529091529020600d0154811015612ab1576001600160a01b03861660009081526020818152604080832088845290915281206007018054612a28918691859081106129ff57634e487b7160e01b600052603260045260246000fd5b6000918252602090912060088204015460079091166004026101000a900463ffffffff16612552565b9050612a348184613adc565b6001600160a01b0388166000908152602081815260408083208a84529091529020600d018054919450612a9e918991899186908110612a8357634e487b7160e01b600052603260045260246000fd5b6000918252602090912001546001600160a01b0316846117c2565b5080612aa981613b72565b915050612989565b50611912858585612ac28587613b5b565b6117c2565b612ad18282612044565b15612ae057610fec8282611ac3565b612aea8282611a31565b15610fec57610fec828261260e565b6001600160a01b038481166000908152602081815260408083208784529091528120600c01549091168015612b5b5734158015612b475750836001600160a01b0316816001600160a01b0316145b8015612b535750600083115b915050612b7e565b3415801590612b7157506001600160a01b038416155b8015612b53575082159150505b949350505050565b6001600160a01b0383166000908152602081815260408083208584529091528120600101548015801590612bc457508034101580612bc45750808310155b15612bd357600191505061176e565b6000612710612be287876128f5565b612bee90612710613adc565b6001600160a01b0388166000908152602081815260408083208a8452909152902060040154612c1d9190613b3c565b612c279190613b1c565b90508034101580612c385750808410155b9695505050505050565b6001600160a01b0383811660009081526020818152604080832086845290915290206008810154600490910154911690612c7d858585612c98565b6001600160a01b0382161561191257611912858584846117c2565b6001600160a01b038381166000908152602081815260408083208684529091529020600c0154168015612d74576040516323b872dd60e01b81526001600160a01b038216906323b872dd90612cf5903390309087906004016135f0565b602060405180830381600087803b158015612d0f57600080fd5b505af1158015612d23573d6000803e3d6000fd5b505050506040513d601f19601f82011682018060405250810190612d479190613529565b506001600160a01b0384166000908152602081815260408083208684529091529020600401829055612d9d565b6001600160a01b0384166000908152602081815260408083208684529091529020346004909101555b50506001600160a01b039091166000908152602081815260408083209383529290522060080180546001600160a01b03191633179055565b828054828255906000526020600020908101928215612e2a579160200282015b82811115612e2a57825182546001600160a01b0319166001600160a01b03909116178255602090920191600190910190612df5565b50612e36929150612f40565b5090565b82805482825590600052602060002090600701600890048101928215612e2a5791602002820160005b83821115612ea757835183826101000a81548163ffffffff021916908363ffffffff1602179055509260200192600401602081600301049283019260010302612e63565b8015612ed75782816101000a81549063ffffffff0219169055600401602081600301049283019260010302612ea7565b5050612e36929150612f40565b828054828255906000526020600020908101928215612e2a579160200282015b82811115612e2a578251825591602001919060010190612f04565b5080546000825590600052602060002090810190612f3d9190612f40565b50565b5b80821115612e365760008155600101612f41565b80356001600160a01b0381168114612f6c57600080fd5b919050565b600082601f830112612f81578081fd5b81356020612f96612f9183613ab8565b613a87565b80838252828201915082860187848660051b8901011115612fb5578586fd5b855b85811015612fda57612fc882612f55565b84529284019290840190600101612fb7565b5090979650505050505050565b600082601f830112612ff7578081fd5b81356020613007612f9183613ab8565b80838252828201915082860187848660051b8901011115613026578586fd5b855b85811015612fda57813584529284019290840190600101613028565b600082601f830112613054578081fd5b81356020613064612f9183613ab8565b80838252828201915082860187848660051b8901011115613083578586fd5b855b85811015612fda57813563ffffffff811681146130a0578788fd5b84529284019290840190600101613085565b600080600080600080600060e0888a0312156130cc578283fd5b6130d588612f55565b9650602088013567ffffffffffffffff808211156130f1578485fd5b6130fd8b838c01612fe7565b975061310b60408b01612f55565b965060608a0135955061312060808b01612f55565b945060a08a0135915080821115613135578384fd5b6131418b838c01612f71565b935060c08a0135915080821115613156578283fd5b506131638a828b01613044565b91505092959891949750929550565b600080600080600080600060e0888a03121561318c578283fd5b61319588612f55565b9650602088013567ffffffffffffffff808211156131b1578485fd5b6131bd8b838c01612fe7565b97506131cb60408b01612f55565b965060608a0135955060808a0135945060a08a0135915080821115613135578384fd5b60008060008060008060008060006101208a8c03121561320c578182fd5b6132158a612f55565b985060208a013567ffffffffffffffff80821115613231578384fd5b61323d8d838e01612fe7565b995061324b60408d01612f55565b985060608c0135975060808c0135965060a08c0135955060c08c0135945060e08c013591508082111561327c578384fd5b6132888d838e01612f71565b93506101008c013591508082111561329e578283fd5b506132ab8c828d01613044565b9150509295985092959850929598565b600080604083850312156132cd578182fd5b6132d683612f55565b946020939093013593505050565b6000806000606084860312156132f8578283fd5b61330184612f55565b92506020840135915061331660408501612f55565b90509250925092565b60008060008060808587031215613334578081fd5b61333d85612f55565b93506020850135925061335260408601612f55565b9396929550929360600135925050565b600080600080600060a08688031215613379578283fd5b61338286612f55565b94506020860135935061339760408701612f55565b9250606086013591506133ac60808701612f55565b90509295509295909350565b600080600080600080600060e0888a0312156133d2578081fd5b6133db88612f55565b9650602088013595506133f060408901612f55565b94506060880135935061340560808901612f55565b925060a088013567ffffffffffffffff80821115613135578283fd5b600080600080600080600060e0888a03121561343b578081fd5b61344488612f55565b96506020880135955061345960408901612f55565b9450606088013593506080880135925060a088013567ffffffffffffffff80821115613135578283fd5b60008060008060008060008060006101208a8c0312156134a1578283fd5b6134aa8a612f55565b985060208a013597506134bf60408b01612f55565b965060608a0135955060808a0135945060a08a0135935060c08a0135925060e08a013567ffffffffffffffff8082111561327c578384fd5b60008060006060848603121561350b578081fd5b61351484612f55565b95602085013595506040909401359392505050565b60006020828403121561353a578081fd5b8151801515811461176e578182fd5b6000815180845260208085019450808401835b838110156135815781516001600160a01b03168752958201959082019060010161355c565b509495945050505050565b6000815180845260208085019450808401835b838110156135815781518752958201959082019060010161359f565b6000815180845260208085019450808401835b8381101561358157815163ffffffff16875295820195908201906001016135ce565b6001600160a01b039384168152919092166020820152604081019190915260600190565b6001600160a01b0393841681526020810192909252909116604082015260600190565b6001600160a01b038981168252602082018990528781166040830152868116606083015260808201869052841660a082015261010060c0820181905260009061368283820186613549565b905082810360e084015261369681856135bb565b9b9a5050505050505050505050565b600061014060018060a01b03808e1684528c6020850152808c166040850152808b166060850152508860808401528760a08401528660c08401528560e0840152806101008401526136f881840186613549565b905082810361012084015261370d81856135bb565b9d9c50505050505050505050505050565b6001600160a01b038a81168252602082018a90526101206040830181905260009161374b8483018c61358c565b9150808a16606085015280891660808501528760a085015280871660c08501525082810360e084015261377e8186613549565b905082810361010084015261379381856135bb565b9c9b505050505050505050505050565b6001600160a01b038c81168252602082018c9052610160604083018190526000916137d08483018e61358c565b9150808c166060850152808b166080850152508860a08401528760c08401528660e08401528561010084015282810361012084015261380f8186613549565b905082810361014084015261382481856135bb565b9e9d5050505050505050505050505050565b60208082526025908201527f4f6e6c7920746865206f776e65722063616e2063616c6c20746869732066756e60408201526431ba34b7b760d91b606082015260800190565b6020808252602e908201527f6f6e6c79207468652077686974656c69737465642062757965722063616e206260408201526d1a59081bdb881d1a1a5cc813919560921b606082015260800190565b6020808252818101527f5468652061756374696f6e2068617320612076616c696420626964206d616465604082015260600190565b602080825260119082015270050726963652063616e6e6f74206265203607c1b604082015260600190565b60208082526029908201527f6d69736d6174636865642066656520726563697069656e747320616e642070656040820152687263656e746167657360b81b606082015260800190565b60208082526051908201527f42696420696e6372656173652070657263656e74616765206d7573742062652060408201527f67726561746572207468616e206d696e696d756d207365747461626c6520696e6060820152706372656173652070657263656e7461676560781b608082015260a00190565b6020808252602a908201527f4d696e2070726963652063616e6e6f742065786365656420383025206f66206260408201526975794e6f77507269636560b01b606082015260800190565b60208082526034908201527f4e756d626572206f66204e465473206e6f74206170706c696361626c6520666f60408201527339103130ba31b41039b0b63297b0bab1ba34b7b760611b606082015260800190565b604051601f8201601f1916810167ffffffffffffffff81118282101715613ab057613ab0613ba3565b604052919050565b600067ffffffffffffffff821115613ad257613ad2613ba3565b5060051b60200190565b60008219821115613aef57613aef613b8d565b500190565b600063ffffffff808316818516808303821115613b1357613b13613b8d565b01949350505050565b600082613b3757634e487b7160e01b81526012600452602481fd5b500490565b6000816000190483118215151615613b5657613b56613b8d565b500290565b600082821015613b6d57613b6d613b8d565b500390565b6000600019821415613b8657613b86613b8d565b5060010190565b634e487b7160e01b600052601160045260246000fd5b634e487b7160e01b600052604160045260246000fdfea26469706673582212200ce769c544faba457f2fbeeb0b89708317af180dd3ad0aafcfc3aadfa3b3261164736f6c63430008040033",
  "devdoc": {
    "author": "Avo Labs GmbH",
    "kind": "dev",
    "methods": {},
    "title": "An Auction Contract for bidding and selling single and batched NFTs",
    "version": 1
  },
  "userdoc": {
    "kind": "user",
    "methods": {
      "createDefaultNftAuction(address,uint256,address,uint256,uint256,address[],uint32[])": {
        "notice": "Create an auction that uses the default bid increase percentage & the default auction bid period."
      }
    },
    "notice": "This contract can be used for auctioning any NFTs, and accepts any ERC20 token as payment",
    "version": 1
  },
  "storageLayout": {
    "storage": [
      {
        "astId": 2261,
        "contract": "contracts/NFTAuction.sol:NFTAuction",
        "label": "nftContractAuctions",
        "offset": 0,
        "slot": "0",
        "type": "t_mapping(t_address,t_mapping(t_uint256,t_struct(Auction)2303_storage))"
      },
      {
        "astId": 2267,
        "contract": "contracts/NFTAuction.sol:NFTAuction",
        "label": "nftOwner",
        "offset": 0,
        "slot": "1",
        "type": "t_mapping(t_address,t_mapping(t_uint256,t_address))"
      },
      {
        "astId": 2271,
        "contract": "contracts/NFTAuction.sol:NFTAuction",
        "label": "failedTransferCredits",
        "offset": 0,
        "slot": "2",
        "type": "t_mapping(t_address,t_uint256)"
      },
      {
        "astId": 2305,
        "contract": "contracts/NFTAuction.sol:NFTAuction",
        "label": "defaultBidIncreasePercentage",
        "offset": 0,
        "slot": "3",
        "type": "t_uint256"
      },
      {
        "astId": 2307,
        "contract": "contracts/NFTAuction.sol:NFTAuction",
        "label": "defaultAuctionBidPeriod",
        "offset": 0,
        "slot": "4",
        "type": "t_uint256"
      },
      {
        "astId": 2309,
        "contract": "contracts/NFTAuction.sol:NFTAuction",
        "label": "minimumSettableIncreasePercentage",
        "offset": 0,
        "slot": "5",
        "type": "t_uint256"
      },
      {
        "astId": 2311,
        "contract": "contracts/NFTAuction.sol:NFTAuction",
        "label": "maximumMinPricePercentage",
        "offset": 0,
        "slot": "6",
        "type": "t_uint256"
      }
    ],
    "types": {
      "t_address": {
        "encoding": "inplace",
        "label": "address",
        "numberOfBytes": "20"
      },
      "t_array(t_address)dyn_storage": {
        "base": "t_address",
        "encoding": "dynamic_array",
        "label": "address[]",
        "numberOfBytes": "32"
      },
      "t_array(t_uint256)dyn_storage": {
        "base": "t_uint256",
        "encoding": "dynamic_array",
        "label": "uint256[]",
        "numberOfBytes": "32"
      },
      "t_array(t_uint32)dyn_storage": {
        "base": "t_uint32",
        "encoding": "dynamic_array",
        "label": "uint32[]",
        "numberOfBytes": "32"
      },
      "t_mapping(t_address,t_mapping(t_uint256,t_address))": {
        "encoding": "mapping",
        "key": "t_address",
        "label": "mapping(address => mapping(uint256 => address))",
        "numberOfBytes": "32",
        "value": "t_mapping(t_uint256,t_address)"
      },
      "t_mapping(t_address,t_mapping(t_uint256,t_struct(Auction)2303_storage))": {
        "encoding": "mapping",
        "key": "t_address",
        "label": "mapping(address => mapping(uint256 => struct NFTAuction.Auction))",
        "numberOfBytes": "32",
        "value": "t_mapping(t_uint256,t_struct(Auction)2303_storage)"
      },
      "t_mapping(t_address,t_uint256)": {
        "encoding": "mapping",
        "key": "t_address",
        "label": "mapping(address => uint256)",
        "numberOfBytes": "32",
        "value": "t_uint256"
      },
      "t_mapping(t_uint256,t_address)": {
        "encoding": "mapping",
        "key": "t_uint256",
        "label": "mapping(uint256 => address)",
        "numberOfBytes": "32",
        "value": "t_address"
      },
      "t_mapping(t_uint256,t_struct(Auction)2303_storage)": {
        "encoding": "mapping",
        "key": "t_uint256",
        "label": "mapping(uint256 => struct NFTAuction.Auction)",
        "numberOfBytes": "32",
        "value": "t_struct(Auction)2303_storage"
      },
      "t_struct(Auction)2303_storage": {
        "encoding": "inplace",
        "label": "struct NFTAuction.Auction",
        "members": [
          {
            "astId": 2273,
            "contract": "contracts/NFTAuction.sol:NFTAuction",
            "label": "minPrice",
            "offset": 0,
            "slot": "0",
            "type": "t_uint256"
          },
          {
            "astId": 2275,
            "contract": "contracts/NFTAuction.sol:NFTAuction",
            "label": "buyNowPrice",
            "offset": 0,
            "slot": "1",
            "type": "t_uint256"
          },
          {
            "astId": 2277,
            "contract": "contracts/NFTAuction.sol:NFTAuction",
            "label": "auctionBidPeriod",
            "offset": 0,
            "slot": "2",
            "type": "t_uint256"
          },
          {
            "astId": 2279,
            "contract": "contracts/NFTAuction.sol:NFTAuction",
            "label": "auctionEnd",
            "offset": 0,
            "slot": "3",
            "type": "t_uint256"
          },
          {
            "astId": 2281,
            "contract": "contracts/NFTAuction.sol:NFTAuction",
            "label": "nftHighestBid",
            "offset": 0,
            "slot": "4",
            "type": "t_uint256"
          },
          {
            "astId": 2283,
            "contract": "contracts/NFTAuction.sol:NFTAuction",
            "label": "bidIncreasePercentage",
            "offset": 0,
            "slot": "5",
            "type": "t_uint256"
          },
          {
            "astId": 2286,
            "contract": "contracts/NFTAuction.sol:NFTAuction",
            "label": "batchTokenIds",
            "offset": 0,
            "slot": "6",
            "type": "t_array(t_uint256)dyn_storage"
          },
          {
            "astId": 2289,
            "contract": "contracts/NFTAuction.sol:NFTAuction",
            "label": "feePercentages",
            "offset": 0,
            "slot": "7",
            "type": "t_array(t_uint32)dyn_storage"
          },
          {
            "astId": 2291,
            "contract": "contracts/NFTAuction.sol:NFTAuction",
            "label": "nftHighestBidder",
            "offset": 0,
            "slot": "8",
            "type": "t_address"
          },
          {
            "astId": 2293,
            "contract": "contracts/NFTAuction.sol:NFTAuction",
            "label": "nftSeller",
            "offset": 0,
            "slot": "9",
            "type": "t_address"
          },
          {
            "astId": 2295,
            "contract": "contracts/NFTAuction.sol:NFTAuction",
            "label": "whitelistedBuyer",
            "offset": 0,
            "slot": "10",
            "type": "t_address"
          },
          {
            "astId": 2297,
            "contract": "contracts/NFTAuction.sol:NFTAuction",
            "label": "nftRecipient",
            "offset": 0,
            "slot": "11",
            "type": "t_address"
          },
          {
            "astId": 2299,
            "contract": "contracts/NFTAuction.sol:NFTAuction",
            "label": "ERC20Token",
            "offset": 0,
            "slot": "12",
            "type": "t_address"
          },
          {
            "astId": 2302,
            "contract": "contracts/NFTAuction.sol:NFTAuction",
            "label": "feeRecipients",
            "offset": 0,
            "slot": "13",
            "type": "t_array(t_address)dyn_storage"
          }
        ],
        "numberOfBytes": "448"
      },
      "t_uint256": {
        "encoding": "inplace",
        "label": "uint256",
        "numberOfBytes": "32"
      },
      "t_uint32": {
        "encoding": "inplace",
        "label": "uint32",
        "numberOfBytes": "4"
      }
    }
  }
}